:1000000000200010C1000000E1000000E30000003B
:1000100000000000000000000000000000000000E0
:10002000000000000000000000000000E5000000EB
:100030000000000000000000E700000009010000CF
:10004000EB000000EB000000EB000000EB00000004
:10005000EB000000EB000000EB000000EB000000F4
:10006000EB000000EB000000EB000000EB000000E4
:10007000EB0000002D250000EB000000EB0000006D
:10008000EB000000EB000000EB000000EB000000C4
:10009000EB000000ED000000000000000000000088
:1000A000EB000000EB000000EB000000000000008F
:1000B000EB000000EB000000EB000000EB00000094
:1000C0000549064A0020521A02DD043A8850FCDC39
:1000D00001F010FF01F012FA08010010900A001060
:1000E000FEE7FEE7FEE7FEE7FEE7FEE710B5034AA0
:1000F0000349044802F0CAF810BDC046740100105C
:10010000F401001000800040024A136801331360BC
:100110007047C04638070010FA210B4B10B518681D
:10012000890002F0C7FC094A01385060C020084924
:1001300000060B6A1B021B0A03430B620023936039
:100140000733136010BDC0463C07001010E000E00C
:1001500000ED00E010B5040002F04CFE22000300A8
:100160000249034802F064F810BDC0467401001053
:100170000080004010B5FFF7EDFF04000248FFF7D4
:10018000E9FF201810BDC046342F000010B5020052
:100190000B000248024902F071F810BD00800040D7
:1001A000F401001010B5040002F024FE210002004A
:1001B000014802F00FF810BD0080004010B5FFF7B5
:1001C000F1FF04000248FFF7EDFF201810BDC04604
:1001D000342F000010B502F0E9FA10BD70B500240C
:1001E000184D0600642301221749280001F00CFF76
:1001F0002C61EC60154D164964230122280001F0A2
:1002000003FF2C61EC60A4220125124B124C9D507F
:1002100004329D50200001F0C9FF3100200002F09F
:100220005BF803238022C021E3607E33A360013B9F
:100230002363636892031D43084B490065605A506D
:100240001A6070BDF4010010080100107401001064
:100250008C010010004004400080004000E100E0FC
:1002600010B501F0BFFD10BD02780123002A02D0B5
:1002700042688378CA600B727047C04610B501F0BF
:10028000B9FD10BD10B5040001F0BAFDE07501F034
:10029000C9FD207601F0BCFD607601F0A3FDA076DB
:1002A00010BDC04670B504000D00012849D9274B88
:1002B0001A78002A09D00F2C06D8254BA4001B5908
:1002C0009F462448FFF756FF70BD01321A7002F0B6
:1002D000F3F8280002F06AFAEDE71F48FFF74AFF3B
:1002E000F2E71E48FFF746FFEEE71D48FFF742FF23
:1002F000EAE71C48FFF73EFFE6E71B48FFF73AFF37
:10030000E2E71A48FFF736FFDEE71948FFF732FF4A
:10031000DAE71848FFF72EFFD6E71748FFF72AFF5E
:10032000D2E71648FFF726FFCEE71548FFF722FF72
:10033000CAE71448FFF71EFFC6E71348FFF71AFF86
:10034000C2E70022014B1A70BEE7C046F001001060
:10035000F02E0000383000001C300000382F000064
:10036000582F0000682F0000782F0000882F000011
:10037000982F0000A82F0000B82F0000482F000081
:10038000C82F0000DC2F0000FC2F000070B584B0E7
:1003900004000D0002F01AFA00280CD002283FD009
:1003A0000022304B1A70012840D007280CD01028AA
:1003B00043D00B2801D004B070BD684602F004FBA6
:1003C0006B461B78E376F6E7684602F0EBFA6A467E
:1003D0006368528869461A806A4668466C466D466C
:1003E0006E46128909785A801971C079587124793A
:1003F0009C71AD79DD7176791E7200290AD10028D1
:1004000008D1002C06D1002D04D1002E02D10121EB
:10041000597201E000215972002A0BD19A72CAE781
:1004200002F0BCF9A968FFF73DFFC4E7684602F097
:1004300099F9C0E701229A72BDE7684602F0E6FA30
:100440006A46236852881A606A460821525E5A60DA
:100450006A46D2889A606B461B78637501232375C0
:10046000A9E7C046F001001000B583B06B460288D2
:100470009A8082881A806A46837A6846937002F06E
:10048000D7FA0249FFF70EFF03B000BD90D003007A
:10049000012300B583B001A8037002F065FA024998
:1004A000FFF700FF03B000BD20A1070000B50379EE
:1004B00083B0022B0FD0032B09D0022301A80370B5
:1004C00002F0DAFA0649FFF7EDFE03B000BD0123A2
:1004D00001A80370F4E7002301A80370F0E7C04609
:1004E00090D00300F0B54746160080B44B68284F03
:1004F000284A0D0004693B40934232D0264A934279
:1005000020D0FA21254A89001368E31A8B4202D9C8
:100510002B79002B36D1FA21214A49001368E31ABE
:100520008B4202D9337A002B28D1FA211D4A890047
:100530001368E31A8B4202D92B79002B0CD104BC2F
:100540009046F0BD184BAF689F42DAD101F0B4FF7E
:10055000380002F02BF9D4E728001460FFF7A6FF5B
:10056000EDE78A68114B90469A42CAD101F0A4FF88
:10057000404602F01BF96B683B40BFE71460FFF791
:1005800087FFD2E730001460FFF76EFFC3E7C04675
:10059000FF00FF00020002000200040070010010D2
:1005A0006C0100108801001090D0030020A107000A
:1005B0000023024A837113607047C0460C0200108A
:1005C00070B5037A022B3CD0032B1CD0012B06D034
:1005D0008C790B2C16D8B64DA4002C59A7468B79D4
:1005E000002B67D00B238B7100235372937213601F
:1005F0005360837D002B05D143689B7A002B01D18A
:1006000000238B7170BD8C79002C45D144230C687C
:10061000E35C002B1DD1002353729372136053606F
:1006200009338B71837E002BECD043685B7A002BFF
:10063000E8D1002353729372136053600A338B71B5
:10064000E0E78C79002C0ED144230C68E35C002B8E
:100650007DD0012B2ED10023137202228A71954A7C
:100660008A600375CEE7092CB3D144230C68E35CA0
:10067000002B6CD0012BEED00023537293721360C9
:100680005360437D002B01D10B338B71837D002B95
:10069000B8D00023537294E0072C00D1DFE0082C7F
:1006A00097D144240B681C5D002CB4D0012C00D0E1
:1006B0008EE0D0E700235372937213605360A1E77A
:1006C00000235372937213605360837E002B99D181
:1006D00043685B7A002B95D006238B7192E7012348
:1006E000137202338B71734B8B6000230375724B53
:1006F0001A68724B1A6085E7037D002B7CD16E4C23
:100700006F4D24682D68641B6E4DAC4200D879E7AC
:10071000A2E70023137205228A716B4A8A6003756F
:10072000654B1A68664B1A606CE7634B634C1B6839
:1007300024681B1BFA246400A34200D862E700234C
:10074000137204228A71604A8A6003755AE706238D
:100750008B71837E002B00D067E701249372547263
:1007600013605360827D002A00D14BE700680A685D
:100770000068526890425B4107338B7142E70B6817
:1007800004685D682468AC423ED308248C71DC6B3D
:100790001B6C14605360012353729372837E002B91
:1007A00004D043685B7A002B00D142E7837D002BA5
:1007B00004D043689B7A002B00D023E701235372B7
:1007C000002393721360536006338B711AE70B6832
:1007D000046825682E005D68AE421DD207248C7126
:1007E0005C6B9B6B14605360012353729372837D27
:1007F000002B00D016E7E1E70023137206228A716E
:10080000314A8A600375FDE65C6B9B6B1460536034
:10081000012353729372C1E7DD6B1E6A15601D6C74
:1008200064685560012555729572DD697543AC4267
:100830001ED2264C056924685B6A2C1B9C42D6D3C9
:10084000002353729372136053600B338B71D9E69C
:10085000022B00D17DE7032B00D0E3E6DBE6442446
:100860000B681C5D002C00D1D5E6012C88D1F2E686
:10087000164B04691C60BAE7002454729472146029
:100880005460012B00D1B4E60B79022B07D0032B67
:1008900000D0B7E6437D002B00D01DE7B0E602682C
:1008A0000B6812685B689A4200D3A9E614E7C04659
:1008B0005430000020A1070038070010100200107B
:1008C000080200108813000090D003000C020010F2
:1008D00010B544682C49200002F048FA00282ED0B8
:1008E0002A49200002F042FA002842D0284920007C
:1008F00002F03CFA00280FD1264C23685B7A002BCB
:1009000025D12548FFF736FC23689B7A002B25D09C
:100910002248FFF72FFC19E02149200002F026FAB7
:1009200000281FD01F49200002F020FA002827D1FC
:10093000184B1A680123917A4B40937206E001220A
:10094000144B19481B681A72FFF714FC10BD1348AA
:10095000FFF710FC23689B7A002BD9D10E48FFF7D4
:1009600009FCF3E70B4B1A680123517A4B40537291
:10097000ECE7084B1B6818720C48FFF7FBFBE5E738
:100980000B48FFF7F7FBE1E74C340000443400006C
:10099000E03100001402001000320000EC310000D1
:1009A0001432000020320000C4310000D0310000B9
:1009B0002C320000F8B54F464646C0B4C44B8046C2
:1009C0001F683B79012B22D1C24B466899461D1DF9
:1009D000C149002400E002CD300002F0C7F9002830
:1009E0001CD00134E4B2112CF5D14D464C461C35D7
:1009F000BA4900E0616C300002F0B8F9002813D069
:100A00000434A542F6D1B648FFF7B4FB02E0B5487E
:100A1000FFF7B0FB0CBC90469946F8BD102C1FD8D0
:100A2000B14BA4001B599F46B048FFF7A3FBF1E769
:100A3000434699683C680A78002A00D1C0E1002347
:100A400001319800C3185B0001319B184A1E1278CF
:100A5000303B002AF5D12364A548FFF78BFBD9E78B
:100A6000434699683C680A78002A00D1A0E1002337
:100A700001319800C3185B0001319B184A1E12789F
:100A8000303B002AF5D123609948FFF773FBC1E79B
:100A9000434699683C680A78002A00D180E1002327
:100AA00001319800C3185B0001319B184A1E12786F
:100AB000303B002AF5D1A3618D48FFF75BFBA9E726
:100AC000434699683C680A78002A00D17CE10023FB
:100AD00001319800C3185B0001319B184A1E12783F
:100AE000303B002AF5D1E3618148FFF743FB91E7F2
:100AF000434699683C680A78002A00D152E10023F5
:100B000001319800C3185B0001319B184A1E12780E
:100B1000303B002AF5D1E3607548FFF72BFB79E7FE
:100B2000434699683C680A78002A00D144E10023D2
:100B300001319800C3185B0001319B184A1E1278DE
:100B4000303B002AF5D1E3626948FFF713FB61E708
:100B5000434699683C680A78002A00D124E10023C2
:100B600001319800C3185B0001319B184A1E1278AE
:100B7000303B002AF5D1A3625D48FFF7FBFA49E755
:100B8000434699683C680A78002A00D11AE100239C
:100B900001319800C3185B0001319B184A1E12787E
:100BA000303B002AF5D163635148FFF7E3FA31E7A0
:100BB000434699683C680A78002A00D1FEE0002389
:100BC00001319800C3185B0001319B184A1E12784E
:100BD000303B002AF5D163604548FFF7CBFA19E7AF
:100BE000434699683C680A78002A00D1E2E0002375
:100BF00001319800C3185B0001319B184A1E12781E
:100C0000303B002AF5D1A3603948FFF7B3FA01E77A
:100C1000434699683C680A78002A00D1BCE000236A
:100C200001319800C3185B0001319B184A1E1278ED
:100C3000303B002AF5D123622D48FFF79BFAE9E605
:100C4000434699683C680A78002A00D1AEE0002348
:100C500001319800C3185B0001319B184A1E1278BD
:100C6000303B002AF5D163622148FFF783FAD1E6D1
:100C7000434699683C680A78002A00D18EE0002338
:100C800001319800C3185B0001319B184A1E12788D
:100C9000303B002AF5D123611548FFF76BFAB9E61E
:100CA000434699683C680A78002A6FD000230131D6
:100CB0009800C3185B0001319B184A1E1278303B24
:100CC000002AF5D163610A48FFF754FAA2E6C0464C
:100CD0002402001030310000443200005032000085
:100CE000A03200005832000084300000843200003E
:100CF0007C320000434699683C680A78002A49D053
:100D0000002301319800C3185B0001319B184A1E73
:100D10001278303B002AF5D1A3632C48FFF72AFA5A
:100D200078E6434699683C680A78002A30D0002368
:100D300001319800C3185B0001319B184A1E1278DC
:100D4000303B002AF5D1E3632048FFF713FA61E650
:100D500043469C681E49200002F008F800280DD088
:100D60001C49200002F002F8002800D04BE6442382
:100D70003A68D0541548FFF7FDF94BE601214423AA
:100D80003A681248D154FFF7F5F943E6002399E792
:100D90000023D8E70023BFE700234CE700237AE7CE
:100DA000002388E60023B6E60023E4E600235AE7A2
:100DB000002368E6002326E70023C4E600230AE7B1
:100DC000002348E60023EEE600238CE67C32000098
:100DD000B4320000B832000010B5104B1B6818790F
:100DE000022804D0022101F031F8002812D00C4B67
:100DF0001B681A78002A07D101221A7001329A70F2
:100E00000848FFF7B7F910BD002207481A70FFF72E
:100E1000B1F9F8E70548FFF7ADF9F4E7240200104F
:100E200014020010C8320000BC320000D0320000B2
:100E3000F0B59F4D87B046682F1D9E49002400E005
:100E400002CF300001F092FF002815D00134E4B247
:100E5000112CF5D1984900E0696C300001F086FF53
:100E600000280FD00134E4B20435182CF4D1934893
:100E7000FFF780F907B0F0BD102C52D8904BA400BA
:100E80001B599F46123CE4B2052C00D981E08D4BE2
:100E9000A4001B599F468C4B1B681B6858680A228C
:100EA00001A902F021F801A8FFF764F9E2E7864BF7
:100EB0001B681B689868F2E7844B1B681B68186BFB
:100EC000EDE7824B1B681A684523D35C804A9B0080
:100ED0009858FFF74FF9CDE77B4B1B681B681868E4
:100EE000DDE77A4BD8E7794B1B681B689868D6E733
:100EF000764B1B681B68D868D1E7744B1B681B686E
:100F0000D86ACCE7714B1B681B68986BC7E76F4BBF
:100F10001B681B68D86BC2E76C4B1B681B68186C9E
:100F2000BDE76A4B1B681B681868B8E7674B1B680E
:100F30001B681869B3E7654B1B681B685869AEE707
:100F4000624B1B681B689869A9E7604B1B681B68AC
:100F5000D869A4E75D4B1B681B68186A9FE75B4B69
:100F60001B681B68586A9AE7584B1B681B68986A8D
:100F700095E7564B1B681B68586B90E7534B1B68F3
:100F80001A684423D35C534A9B009858FFF7F2F841
:100F900070E74E4C504A23681B799B009858FFF726
:100FA000E9F823684D4A5B799B009858FFF7E2F80F
:100FB00023684B4A9B799B009858FFF7DBF859E769
:100FC000414C0A22236801A9987E01F08DFF454813
:100FD000FFF7C0F801A8FFF7CDF823680A22D87DF3
:100FE00001A901F081FF4048FFF7B4F801A8FFF71D
:100FF000C1F823680A22187E01A901F075FF3B4859
:10100000FFF7A8F801A8FFF7B5F823680A22587E71
:1010100001A901F069FF3648FFF79CF801A8FFF726
:10102000A9F823685A7E002A25D15B680A22587ADB
:1010300001A901F059FF2F48FFF78CF801A8FFF72D
:1010400099F823685B685A7A002A00D112E71A7966
:10105000002A1DD15A79002A1ED19A79002A1FD15F
:10106000DA79002A20D11B7A002B00D102E722482E
:10107000FFF780F8FEE6D87E0A2201A901F034FFCE
:101080001E48FFF767F801A8FFF774F82368CCE75C
:101090001B48FFF76FF8EDE61A48FFF76BF8E9E633
:1010A0001948FFF767F8E5E61848FFF763F8E1E647
:1010B000303100004432000050320000E4330000C0
:1010C000C83000000C310000200200102402001083
:1010D00024310000BC3100009031000018380000BD
:1010E00020380000E4320000003300000C33000020
:1010F0002033000038330000CC3300002C330000D4
:10110000443300006433000084330000A433000043
:1011100010B544680F49200001F028FE002809D0CE
:101120000D49200001F022FE00280BD00B48FFF7EC
:1011300021F810BD0A4B186800F0CEFC0948FFF7F3
:1011400019F8F6E7064B186800F0FCFC0548FFF7B5
:1011500011F8EEE7FC33000004340000A032000078
:10116000240200107C32000070B51D4946681D4DF8
:10117000002400E02968300001F0F8FD002808D0C4
:101180000134E4B20435072CF4D11748FEF7E2FF2E
:1011900070BD164BA200D058FFF710F81248FEF7AA
:1011A000D9FF012CF4D81248FFF708F8114D124866
:1011B0002E002C1D443600E001CCFEF7FFFFB442A8
:1011C000FAD10E48FEF7FAFF2C000D481C3500E05E
:1011D000606C0434FEF7F2FFAC42F9D1D8E7C046A8
:1011E0000C340000F437000034330000F437000002
:1011F0001034000030310000443200002834000078
:101200005032000070B51E4B04001B68187903288B
:1012100004D0032100F01AFE002820D06468194988
:10122000200001F0A3FD00281DD0174B1D680123ED
:101230002B700233AB702278002A1ED00023601C72
:101240009900CB185B0001309B18421E1278303B8E
:10125000002AF5D16B600D48FEF78CFF70BD0C487D
:10126000FEF788FFFAE70122074B52421B6818700D
:101270005A600848FEF77EFFF0E70023EAE7C04621
:10128000240200104434000014020010483400000E
:10129000D032000040340000074B1860074B196043
:1012A000074B01211A600023917013705370137261
:1012B000537293727047C04620020010240200103F
:1012C00014020010F0B547460E6880B48846070047
:1012D000114D1249002400E02968300001F046FD5C
:1012E000002809D001340435072CF5D10C48FEF74D
:1012F00041FF04BC9046F0BD0A4B013F1B5DBB4261
:1013000003D00948FEF736FFF3E7084BA400E35883
:1013100040469847EDE7C046F43700000C34000023
:101320006C3400001038000050340000A031000080
:10133000F0B5037A87B004000E001500002B13D01F
:10134000437A002B06D0224F3B68D31AFA22920030
:10135000934224D8A37A002B06D0FA221D4C920087
:101360002368EB1A934201D807B0F0BD0A2201A905
:10137000280001F0B9FD01A8FEF714FF1648FEF79A
:1013800011FF33680A22986801A901F0ADFD01A898
:10139000FEF714FF1148FEF705FF2560E4E70A2277
:1013A00001A9280001F0A0FD01A8FEF7FBFE0C48F2
:1013B000FEF7F8FE33680A22586801A901F094FD8F
:1013C00001A8FEF7FBFE0548FEF7ECFE3D60C1E715
:1013D000180200101C020010903400008C34000031
:1013E0008434000070B50024234B244D244E1C602F
:1013F0005C601C725C729C722248234BB4220021F8
:10140000B360356034717471B471F471306101F09E
:1014100067FCB4221D4892000021F06001F060FCDE
:1014200001221B4B1B491A721B4A19601268DC60AF
:101430001A611A4A5C755A609C751C75DC751C76BD
:101440005C769C76DC760023EC622C606C60AC6091
:10145000EC602C616C61AC61EC612C626C62AC6222
:101460000C604C608C6014805480137153719371C4
:10147000D3715372937270BD48030010E8020010DC
:10148000E40600103402001020A10700140400102C
:10149000540300103C030010380700103003001004
:1014A00070B504000D00FEF771FF2A002100064808
:1014B000FEF7DAFE054B1B682361FEF7D1FEA0752F
:1014C0002000FEF7DFFE70BD280200103807001074
:1014D000F8B5084E32213000FEF758FE051E08D040
:1014E0000024054F315D3800013400F055FAA54263
:1014F000F8D1F8BD700300107C030010F0B547462A
:1015000080B4FFF76FFFE1200002FEF767FEFEF7F1
:1015100003FE00F04DFB1B4D280000F0DDFA280013
:1015200000F08AFC1848FEF755FE184C18492000B8
:1015300000F0B0F92000174900F0CEF9164F174C13
:101540003A0029002000FFF7A7FE154B154E9846DC
:10155000FFF7BEFF29002000FFF7A2FF320029009D
:10156000200000F091FC707AFEF788FE320029001E
:101570002000FEF7B7FF434621001A683800FFF746
:10158000D7FEE5E7E406001090D003007C030010CE
:1015900055010000C512000028020010540300107D
:1015A0003807001048030010F0B5050083B006228C
:1015B0000F006846002101F093FB114B6A1E9A420E
:1015C00019D800260136731E6B4428000A211C001E
:1015D00001F0F6FA3031217028000A2101F06AFA90
:1015E000051EEFD123003A00BF191978013B117095
:1015F00001329742F9D1002338003B7003B0F0BDAF
:10160000FEFF000000B585B06A46094B1B881380B9
:10161000352393700133D370064B01933323D37179
:10162000432202AB1A8003686846984705B000BDA4
:10163000503A0000441B5B0030B585B01022050015
:101640000C006846002101F04BFB69460F4B1A88DD
:101650000A809B788B70002C0CDD02312000FFF794
:10166000A3FF02220A4901F0B1FA2B6868469847A5
:1016700005B030BD002CFBD060420231FFF794FF73
:101680000222044901F0A2FAEFE7C046503A0000F6
:1016900018370000543A0000F0B55F4656464D46F4
:1016A00044469423F0B40C000600C35883B0194894
:1016B000934698470023250001AF3B707B7084332D
:1016C000F358503575199C4214DA20239A46743326
:1016D0009946103B98462B78002B00D153463B701F
:1016E0004B463800F35898474346F35801340135C8
:1016F000A342F0DC94363000FFF784FF59463000F7
:10170000FFF79AFF03B03CBC90469946A246AB4611
:10171000F0BDC046583A0000F8B546464F468046F0
:101720005023C0B4046C4344065D9946002E00D19A
:101730008DE02500330000270133ED183F2D00DD3B
:10174000403D43465B5D0137002BF5D14346002900
:101750001AD19A6CBA4213DC002E11D07B1E9A4229
:1017600004D128E0CB43DB199A4224D00136A419D6
:101770003F2C00DD403C43461E5D0131002EF1D17F
:101780000CBC90469946F8BD9B6C002B5DDD424633
:10179000013B9364002E0AD144E00136A4193F2C8A
:1017A00000DD403C4246165D002E3BD0013FBB426F
:1017B000F3D1350037E0434601329A6433193F2BA9
:1017C0001CDC33220021484601F08AFA611C4144A6
:1017D0003200484601F0FAF943461B5D4146842237
:1017E000882440468B5094300B51FFF70BFF434643
:1017F00000211A594046FFF74FFFC1E73F2533222A
:101800000021484601F06CFA2D1B611C41442A005E
:10181000484601F0DBF94B46721B5819414601F06E
:10182000D5F9D9E7002563193F2BCFDD3F22611C95
:10183000161B41443200484601F0C8F94B46AA1B2A
:101840009819414601F0C2F9C6E70023C6E7002710
:101850007CE7C046942370B5040088268425C358CD
:101860000B4898472000A35962595030C118D21A2A
:10187000013B0132C01801F0E7F90021A359013BF7
:10188000A3516359E2185032013B1170635170BD8E
:101890005C3A000070B504000D0033220021503086
:1018A00001F01EFA00214022200001F019FA002365
:1018B000842223646364A364A3500432A3500432DB
:1018C000A35004480432A3509433E064E550A84781
:1018D00070BDC046643A00008C23C1507047C046BA
:1018E0009423F0B52A4F0500C3588BB038009847B1
:1018F00084232E00EC58343BE95C00220023503650
:1019000000291BD19C4235DC002A06D010008C2314
:10191000EB58002B01D0694698479423E86CEB58AC
:10192000984700248423EC500433EC5033220021E8
:10193000300001F0D5F9AC640BB0F0BD9C42E3DDA2
:101940000AA98C46501C92006244283AF118116092
:10195000092814DC1A005132AA1802E001329C4214
:10196000D5D0117801330029F8D19C42CFDD020097
:101970009C42C9DD0133E91850310978C0E794244D
:1019800004482B5998472B5938009847C5E7C0465B
:101990008C340000683A000070B582B004000191F8
:1019A0007F2903D84A4A8B00D3589F46202900D16B
:1019B00085E01F2924DD8423E258312A20DC882594
:1019C000200063595030C118D21A0133C01801F0F9
:1019D0003BF901AB61591A7863185033202A00D1C2
:1019E00073E01A70842088234A1CE2502358013384
:1019F00023500020E318503318702000FFF74CFEEE
:101A000002B070BD8823C2588825002A05DD200059
:101A1000FFF720FF6259002AF9DC00212000FFF7C0
:101A20003BFEEDE79430FFF7EDFD00228823E25006
:101A3000E6E788254359002BE2D001219430494242
:101A4000FFF7FAFD6359013B6351D9E784268825E6
:101A5000835942599430991AFFF7EEFDA359635107
:101A6000CEE7882584234259C3589A42C8DA943075
:101A70000121FFF7E1FD635901336351C0E7882578
:101A80004159002902DDFFF7E5FE61590A002000F7
:101A9000FFF702FEB4E7FFF723FFB1E79423C35833
:101AA0000C4898478823E258043BE250A8E70121FC
:101AB000FFF732FEA4E70021FFF72EFEA0E7842304
:101AC000E258002A00D078E79AE7002289E7C0466A
:101AD00050380000583A00000C210368124AD962BD
:101AE000D9615831196211491A6059621049114A75
:101AF000996248215A601963FA220F499A60596322
:101B00000E49F43A996319644421DA60013A1A6182
:101B10000B48013A5A61033A9A61D8635A5400213A
:101B2000443299547047C046C409000060EA00007E
:101B3000CC1000009A10000060B90400DC05000021
:101B400050AB04000C210368124AD962D9615831A4
:101B5000196211491A6059621049114A9962482163
:101B60005A601963FA220F490F4859630F49D86325
:101B700099631964002044219A60F43ADA60013ACA
:101B80001A61013A5A61033A9A61585401315A5420
:101B90007047C046C409000060EA0000CC10000095
:101BA0009A10000060B9040050AB0400DC0500008E
:101BB000F8B55F4656464D464446F0B4A025ED05BF
:101BC000280000F017FA802304210120814C1B0219
:101BD000E25810260A43E2507F4A7C315050E158C7
:101BE00001300143E15001217C48D167C1582027D1
:101BF0003143C15000211164C6583E43C650516460
:101C0000C65820373E43C6501160C658BA46C03742
:101C10003E43C6505162C6580137FF37BC463E436B
:101C20008027C6505165C658FF00B9463E438027FD
:101C3000C6509165C6583F01B8463E430427C6507A
:101C40001167EE583E43EE50D161EE58370008263A
:101C50003743EF50D162EF5808363743EF501163E6
:101C6000EE58370020263743EF5057465163EE5861
:101C70003743EF50D164EE58370080263743EF509A
:101C80001165EE583700802676003743EF50116615
:101C9000EE58370066463743EF505166EE5837002E
:101CA0004E4637430126EF509666EE5837004646BB
:101CB0003743EF50012501265567E5580127354385
:101CC000E5500925AA4695676160E5580736354312
:101CD000E5505646902556512162E5580736354362
:101CE000E5509425083E56512164E5581836354391
:101CF000E550A025183E5651203D6151E558F83673
:101D00003543E550082555614D4666466151E55815
:101D10003543E5500825956345464E466151E558E3
:101D20003543E5500825D566802546466D0161514D
:101D3000E5583543E5500826982556518025AD01D4
:101D400061510125C4582C43C4500824946041605B
:101D5000C45801352C43C450082494628160C4588F
:101D600002352C43C4500824D4650161C45804359D
:101D70002C43C4508C2415510162C45878352C432F
:101D8000C45008241462644601511548783DC45873
:101D900027438424C75015514160C458063D2C4345
:101DA000C450082494678160C45802352C43C45041
:101DB000082494670161C45804352C43C450AC23F3
:101DC0000824D45001623CBC90469946A246AB46DA
:101DD000F8BDC04600000150004004400000025021
:101DE00000000350024B1869431E9841C0B270476F
:101DF00000000150014B4000986070470000015006
:101E0000024B186C431E9841C0B27047000002504C
:101E10008023034AD058431E9841C0B27047C04641
:101E2000000002508023034A5B00D058431E9841B3
:101E3000C0B2704700000250002310B50371437117
:101E40008371C371FEF7B4FB10BDC046012810D0EA
:101E5000022808D0032813D1012913D0023948429F
:101E60004841C0B204E08143013948424841C0B210
:101E7000704700230239C9B288425B41D8B2F7E704
:101E80000020F5E70120F3E7F0B5474680B40C7970
:101E9000077A06000D00200039009046FFF7D6FFB4
:101EA000002805D0012C1BD0002C1CD0032C14D9E9
:101EB000022C0AD0032C08D0002C0BD16B79002BFC
:101EC00015D0012B06D12B7104E0424629003000C9
:101ED000FEF776FB04BC9046F0BDAB79002BE7D152
:101EE0002F713C00E4E76B79012BE8D1F8E701237F
:101EF0006B71EFE7184A194B01201A60184A194B09
:101F000019491A60002201230A644B644A644B6435
:101F10004A6C154B1042FBD023228E2180209A6000
:101F200089005A5882435A501A007F38D1680E4BA4
:101F30000842FBD003221A67002201205A670132AF
:101F40005A675A6F08491042FBD00123074A8B6732
:101F50007F33CA507047C046006CDC023C0700105B
:101F600080BB000040070010008004405F000100BB
:101F7000032100B51B4A83B0136F0B40022B1CD00A
:101F8000032B0CD0012B02D0174803B000BD136CFB
:101F90001940F9D0012923D1144B1868F5E791684D
:101FA000126C134016D0012B1AD11F200F4B084082
:101FB0001B68013001935843E7E71F21536ADA0594
:101FC0001940120F0A4B920001314900D05800F01D
:101FD00071FDDAE71F20044B084001305843D4E775
:101FE0000020D2E700800440001BB700302F000023
:101FF000843A0000802240230249885803438B50D2
:102000007047C04600800440436000230160826046
:102010000361C36001207047F8B5C26803690D0011
:1020200041680400D31A00208B420ED2100000F049
:10203000C7FDA6682768714332007818290000F0B0
:10204000C5FD0120E3680133E360F8BDF0B5474604
:10205000036980B40E0017004168C2680500D31AF6
:10206000884600208B4230D21000CC1A00F0A8FD28
:102070000B190022434503D343465B1AE21A1C00A6
:102080002868BC4226DC3F1B974221DCAA685143EA
:1020900062434018310000F099FDEB686968E01870
:1020A000AB68E860984600F08BFD404648434146E7
:1020B0002B6842469C46614360447A43711800F0A5
:1020C00085FDEB68E019DB19EB6004BC9046F0BDC0
:1020D0001700DBE73C003F1B9742D7DDF8E7C0461F
:1020E000F8B504000369E2680E0000209A420FD0A0
:1020F0001800616800F064FDA568276869432A003C
:102100007918300000F062FD01202369013323615A
:10211000F8BDC046F8B54F464646C468C0B407008F
:1021200000698846150084423DD07E68241A31003B
:1021300000F046FD0B1900229E4202D8761AA21B1F
:1021400034003868AC4229DC2D1B954224DC220087
:10215000BB685A434B43C118404600F037FD3B690A
:10216000BE68E0183300634398442B0073437968DA
:102170003861994600F024FD3B6871439C464A460D
:102180006144404600F022FD3B6960195B193B61E8
:102190000CBC90469946F8BD1500D8E72C002D1BC5
:1021A0009542D4DDF8E70020F2E7C046802110B563
:1021B0008024074B64015A5822435A5098227F3991
:1021C000995007238360043BC3600D33836210BDC5
:1021D0000080044070B500262025002A0DDD002374
:1021E0004469254204D0CC5C013304609A42F7DC98
:1021F000D21AF618C918002AF1DC300070BDC046AA
:10220000F0B583B06A46436904000E00D51D20274F
:102210009B0605D40AE02B78236063691F4205D032
:1022200029003000FFF75CFF0028F4D103B0F0BDB7
:10223000F8B54F4646460225C0B4894616001F0031
:1022400043680400AB433A00436031004846FFF75F
:10225000FDFE804649462000FFF7D2FF434631008D
:10226000FA1A41444846FFF7F1FE636840441D43B3
:1022700065600CBC90469946F8BDC04610B5080094
:1022800011001A00FFF746FF10BDC046F0B5022549
:10229000436883B004000F0016001D4210D16A4647
:1022A0006369D51D0126DB0708D52368290038009E
:1022B0002B70FFF7B1FE63691E42F6D103B0F0BD8B
:1022C0001100FFF79DFFF26833699A42E7D1636816
:1022D000AB436360E3E7C046F8B54F464646C0B43B
:1022E0000D010400FFF744FE2900070000F068FC20
:1022F000002936D0280000F0DDFB0C22030000206E
:102300009A4240410F2602001E4033011A43814683
:1023100031006843904600F0CDFB4119380000F0D1
:10232000C9FB4B46050018016843310000F0C2FBB1
:102330008022FF21E3681343E3600B002B402360FE
:102340002B0A0B406360E36829019343E360434633
:102350000918A362380000F0ADFB0CBC904699460A
:10236000F8BD2900380000F0A5FB002305009846C1
:102370000020DDE70122024B1860024B1A70704703
:10238000200700102707001010B50B4C0B4B607492
:102390001B6820009B68DB68984721000848FFF70E
:1023A0003BFE002806D10122064B1A708022064B04
:1023B00012011A6010BDC046780A0010F81FFF1FF6
:1023C0000C070010270700102007001070B504004C
:1023D000022807D901220D4B1A7080220C4BD20023
:1023E0001A6070BD00230B4E0B4D335429000B486F
:1023F000FFF776FE0028F4D0094B6C741B682800A8
:102400009B681B69984701233355EAE727070010AB
:102410002007001024070010600A0010F8060010C2
:10242000F81FFF1F8022F0B50500802047460C00F2
:10243000204980028B5880B403438B50FFF798FDEE
:10244000290000F037FB002303279846012343446B
:102450009C463E00190001253200032390420ED015
:1024600001335218122BF9D101356144F619212D8F
:10247000F2D163460337102B17D0E046E6E7424619
:10248000033B580822600200032811D8F02196016E
:10249000090102020A403243013D1543E0221B1AA2
:1024A0001B03D20113401D43656004BC9046F0BD80
:1024B0000322EBE700800440074B00205B681B060B
:1024C00008D50822054B0130596891435960596875
:1024D0000A435A607047C04600000540008004402F
:1024E00002000020002A0FD006230F4913409B0052
:1024F000CB589F4680230C20DB009A4204D08023D7
:102500001B019A420DD0013070470520FCE70620E0
:10251000FAE70720F8E70820F6E70920F4E70A20A1
:10252000F2E70F20F0E7C046C43A0000034B10B5B5
:102530001B689B685B68984710BDC046F81FFF1F6B
:102540001B2370B50C4C0D4D63742B6821609B6888
:1025500060609B68200098471C2363742B682000F0
:102560009B689B6898471D2363742B6820009B68B9
:102570009B68984770BDC046780A0010F81FFF1F7F
:102580001E2370B5084C094D63742B6821609B684D
:1025900060609B68200098471F2363742B682000AD
:1025A0009B689B68984770BD780A0010F81FFF1F52
:1025B000F0B50024204D8BB00600102318221F49CF
:1025C0002800FFF721FD2C61EC601D4D1D491023F3
:1025D00018222800FFF718FD2C61EC6002AD2A00DC
:1025E000194B83CB83C283CB83C203CB03C230009E
:1025F000164E6946FFF716FF336801219B6868464F
:102600001B689847336828009B68DB6998478022DD
:102610000F4B92011A6000210020FFF791FF00216B
:102620000020FFF7ADFF0B4B1C700B4B1C600B4BDE
:102630001C800BB0F0BDC0460C070010E008001075
:10264000F806001060070010E03A0000F81FFF1FB6
:1026500000E100E027070010200700102407001009
:10266000094B10B51A78002A06D000221A70074BC1
:102670001868FFF735FF10BD01000548FFF730FD72
:1026800043425841C0B2F6E7270700102007001068
:102690000C070010164B70B51A78002A11D1154C92
:1026A0006378002B14D0A378002B1DD001001248B2
:1026B000FFF7B2FC03005A4253410E205B42184020
:1026C00070BD00221A700D4B1868FFF709FFF7E77D
:1026D0000125012343740A4B1B689B681B699847BB
:1026E000012300206355EBE702250233F2E7C046E1
:1026F0002707001024070010F8060010200700101C
:10270000F81FFF1F0300084870B503600274002320
:10271000002A06D0CD5CC41801332572DCB2A24277
:10272000F8D8FFF7B7FF70BD4807001010B586B0A6
:1027300004006846FFF794FF002811D1009B236036
:102740006B46197C217100290AD00139C9B20131C7
:10275000621D59181C7A0133147001328B42F9D171
:1027600006B010BD30B50B4D0400287800280FD1FD
:10277000094A13682360137905322371631D0D34F0
:102780001178013219700133A342F9D101232B7062
:1027900030BDC04600010010280700100122024B86
:1027A00018781A707047C0460001001010B5064C2A
:1027B000FFF7FEFE20000021FFF7C2FE00212000EF
:1027C000FFF7DEFE10BDC04600F8FF1F10B5314C0C
:1027D0002000FFF7ABFF304A03001070012825D01E
:1027E0000220002B00D010BD2368F22B50D010D94E
:1027F0002A4A934244D025D8F42B32D044D3284AD5
:102800000D209342EFD0274A08389342EBD00120A5
:10281000E9E7D32B3AD00BD8D02B26D02CD90920DE
:10282000D12BE0D00130D22BDDD0F0E70020DAE769
:10283000D52B18D026D30420F02BD4D00B30F12B7D
:10284000D1D0E4E7184A934209D010D9174A14208E
:102850009342C8D0164A0D389342C4D0D7E715200A
:10286000C1E71220BFE71320BDE70E20BBE7013A06
:1028700003209342B7D0CAE70A30C02BB3D0C6E7D3
:102880000820B0E70B20AEE70620ACE71120AAE74E
:102890001020A8E7280700100001001026050000FE
:1028A000210500002205000001060000F4E50618DD
:1028B000E550FF180022002330B583B00092019349
:1028C0006A46431D07320D301C7801331470013AFB
:1028D0008342F9D10124009B019AD80F0870100C93
:1028E000D5004880580F2843204055010871D80E64
:1028F0002843204048711501180F28432040887153
:102900009B0F900003432340CB710A8103B030BD7D
:102910000022002310B582B0009201936A46431D45
:1029200007320D301C7801331470013A8342F9D11B
:10293000019B00981A05D20F0A70C203920D1C0267
:102940004A80020E22439205920D8A80DA0DCA80D7
:102950007F225B025B150B81430C134010408B728E
:10296000C87202B010BDC04600B585B000226946ED
:10297000037868460A73CA728A720021DB07037201
:102980001B0E4172C2716946827143710123C020DE
:102990000B71C000012205310090FFF7B3FE05B0B6
:1029A00000BDC04670B5064D2C78002C05D1010045
:1029B0000448FFF77FFF01232B70200070BDC04645
:1029C000000100102807001070B50E4D0600287891
:1029D00082B0002813D10022002308240092019322
:1029E0006B466442084A6C445179013B19720132CA
:1029F000A342F9D1019B1B0F337001232B7002B04E
:102A000070BDC046000100102807001070B5064DCB
:102A10002C78002C05D101000448FFF779FF012331
:102A20002B70200070BDC046000100102807001068
:102A300000B58388028885B01B04134382786846FA
:102A40000021D2070273120E42721A0A0372C27177
:102A50001A0C1B0EC1728172437169460523827183
:102A600004480B71052205310090FFF74BFE05B0BD
:102A700000BDC046F4E5061800B585B000226946E1
:102A8000037868460A73CA728A720021DB070372F0
:102A90001B0E4172437169460123C2718271044861
:102AA0000B71012205310090FFF72CFE05B000BD2F
:102AB00001060000002243088B4274D303098B42B5
:102AC0005FD3030A8B4244D3030B8B4228D3030CFE
:102AD0008B420DD3FF22090212BA030C8B4202D3A0
:102AE0001212090265D0030B8B4219D300E0090AC8
:102AF000C30B8B4201D3CB03C01A5241830B8B42D1
:102B000001D38B03C01A5241430B8B4201D34B03B9
:102B1000C01A5241030B8B4201D30B03C01A52411E
:102B2000C30A8B4201D3CB02C01A5241830A8B42A3
:102B300001D38B02C01A5241430A8B4201D34B028C
:102B4000C01A5241030A8B4201D30B02C01A5241F0
:102B5000CDD2C3098B4201D3CB01C01A52418309A4
:102B60008B4201D38B01C01A524143098B4201D3DE
:102B70004B01C01A524103098B4201D30B01C01A09
:102B80005241C3088B4201D3CB00C01A5241830883
:102B90008B4201D38B00C01A524143088B4201D3B0
:102BA0004B00C01A5241411A00D201465241104610
:102BB0007047FFE701B5002000F006F802BDC046EF
:102BC0000029F7D076E770477047C04670B50F2AE6
:102BD00032D90C0004430B00A40731D115000400C6
:102BE000103D2D0901352D0149191E6826605E68CA
:102BF00066609E68A660DE681033E6601034994215
:102C0000F3D10F2345191340032B1BD91C1F00239D
:102C1000A4080134A400CE58EE5004339C42FAD1EB
:102C200003232D1909191A4005D00023CC5CEC545C
:102C300001339A42FAD170BD0500002AF5D1FAE7B6
:102C40000500F2E71A00F8E770B588420BD98B1837
:102C5000984208D2991A531E002A03D0CA5CC25463
:102C6000013BFBD270BD0F2A09D80500002AF9D01C
:102C70000023CC5CEC5401339A42FAD1F2E70C0009
:102C800004430B00A40726D115000400103D2D09B4
:102C900001352D0149191E6826605E6866609E68D0
:102CA000A660DE681033E66010349942F3D10F2439
:102CB00045191440032C10D90023043CA408013406
:102CC000A400CE58EE5004339C42FAD103232D19B0
:102CD00009191A40CAE70500CAE72200C6E7C0463C
:102CE00070B583073FD0541E002A3BD0CEB20300FC
:102CF000032503E0621E002C34D0140001335A1E59
:102D000016702B42F6D1032C24D9FF250D402A0240
:102D100015432A0415430F2C11D92600103E3609FD
:102D2000013636011A009B19156055609560D56013
:102D300010329342F8D10F221440032C0AD9261FD7
:102D4000B6080136B6001A009B1920C29342FCD186
:102D500003221440002C05D0C9B21C19197001338C
:102D60009C42FBD170BD14000300CCE7024670B555
:102D70000A4392072AD11E4DEE0104C808C9541B0C
:102D80009443344017D0D0B2D9B2401A210601433F
:102D900010D190B299B2401A210401430AD1100215
:102DA0001902000A090A401A2102014302D1100E39
:102DB000190E401A70BD9A42DFD010BA19BA884273
:102DC00001D9012070BD0020C04370BD02780B788E
:102DD00001300131002A09D09A4207D102780B78DC
:102DE00001300131002A01D09A42EFD0D01A70BDD3
:102DF0000101010110B5830727D00378002B26D0ED
:102E00000300032102E01A78002A1CD001330B4290
:102E1000F9D119680F4A104C8A188A4322420FD1FF
:102E2000043319680B4A8A188A43224208D10433B2
:102E30001968084A8A188A432242F1D000E0013317
:102E40001A78002AFBD1181A10BD0300E1E7002010
:102E5000FAE7C046FFFEFEFE80808080F0B5574650
:102E600045464E46E0B48AB090466A461D4B0D007A
:102E7000060013CB13C213CB13C213CB13C21B78A0
:102E8000EA4613704346023B2F000024222B01D94F
:102E900024E04C46631C300041469946FFF790FE03
:102EA00053465B5C30003B704146FFF703FE013741
:102EB000061EEED14B46E8540023002C07D0EA5CF6
:102EC000295DE9542A550133013CA342F7DB280070
:102ED0000AB01CBC90469946A246F0BD2C7000205A
:102EE000F6E7C046003B000010B5FFF7B7FF10BD86
:102EF000C8020000C8020000E2020000EA0200006E
:102F0000F2020000FA020000020300000A030000BF
:102F1000120300001A030000220300002A0300002D
:102F2000320300003A030000DA020000C20200008F
:102F3000000000000D0A000043616E5F4572726F71
:102F4000725F45504153530043616E5F4572726F2B
:102F5000725F43524300000043616E5F4572726FBF
:102F6000725F5741524E000043616E5F4572726F4F
:102F7000725F424F4646000043616E5F4572726F5A
:102F8000725F53545546000043616E5F4572726F25
:102F9000725F464F524D000043616E5F4572726F23
:102FA000725F41434B00000043616E5F4572726F78
:102FB000725F42495431000043616E5F4572726F27
:102FC000725F42495430000043616E5F4572726F18
:102FD000725F554E555345440000000043616E5FDB
:102FE0004572726F725F554E5245434F474E495A74
:102FF00045445F4D53474F424A00000043616E5FB6
:103000004572726F725F554E5245434F474E495A53
:1030100045445F4552524F520000000043616E5FCD
:103020004572726F725F54585F4255464645525F13
:1030300046554C4C0000000043616E5F4572726F54
:10304000725F52585F4255464645525F46554C4C5A
:1030500000000000B406000056060000DE06000076
:103060002A07000012070000F806000050080000C0
:103070007E070000CE07000078060000C0060000B2
:1030800078080000600A0000B00B0000E00B0000B0
:10309000F00A0000200B0000700C0000A00C0000E3
:1030A000900A0000C00A0000100C0000400C000054
:1030B000500B0000800B0000F40C0000220D0000FB
:1030C000300A0000500D0000220F0000E20E000048
:1030D000E60E0000F00E0000FA0E00002C0F0000BB
:1030E000360F0000400F00004A0F0000540F000090
:1030F0005E0F0000680F0000720F0000040F000058
:103100000E0F0000180F00007C0F0000B80E00002A
:10311000C20E0000D80E0000960E0000AE0E000099
:10312000C00F0000D0370000DC370000E837000097
:103130004432000098340000A4340000B834000089
:10314000C4340000D8340000F0340000043500001E
:1031500018350000283500003C35000050350000CF
:10316000643500007C35000094350000AC3500006B
:10317000C435000050320000D0350000E0350000BA
:10318000EC3500000036000010360000203600004C
:103190006037000074370000883700009C3700005B
:1031A000310E0000B5090000691100001111000086
:1031B00005120000D90D0000D1080000B43700004E
:1031C000C03700004D656173757265204F6E210038
:1031D0004D656173757265204F66662100000000C1
:1031E0007072696E745F666C616773005061636BC7
:1031F0002043757272656E743A204F6E00000000B5
:103200005061636B2043757272656E743A204F662D
:10321000660000007061636B63757272656E7400A6
:103220007061636B766F6C7461676500556E726573
:10323000636F676E697A656420636F6D6D616E643C
:103240002100000063656C6C5F6D696E5F6D5600F8
:103250007374617465000000536574206661696C65
:10326000656420286E6F7420696E207374616E64CB
:103270006279206D6F64652921000000446F6E65DE
:103280002100000074686973206C6F636174696F5A
:103290006E2069732072656164206F6E6C79000026
:1032A000696E76616C6964206C6F636174696F6EBE
:1032B00000000000796573006E6F0000636872673C
:1032C000206F66660000000063687267206F6E0002
:1032D0004D75737420626520696E207374616E642D
:1032E000627900006C6F77207369646520636F6E8C
:1032F000746163746F72206661756C7420000000E5
:10330000494D44206661756C74200000696E7465D7
:10331000726C6F636B206661756C74200000000036
:10332000424D53206661756C742000002020657248
:10333000726F722000000000656C636F6E206F6E0C
:10334000200000002020656C636F6E206861732090
:103350006861726477617265206661696C75726517
:10336000000000002020656C636F6E206F76657230
:103370002074656D702070726F74656374696F6E10
:10338000206F6E002020656C636F6E20696E707513
:103390007420766F6C746167652069732077726F33
:1033A0006E6700002020656C636F6E20626174742C
:1033B00065727920766F6C74616765206E6F74201A
:1033C0006465746563746564000000002020656CAA
:1033D000636F6E20636F6D6D73206973206261642B
:1033E00000000000696E76616C6964206765742076
:1033F0006C6F636174696F6E000000004D59313865
:10340000000000004D59313600000000676574006F
:103410002D2D2D2D2D2D722F7720656E74726965DF
:10342000732D2D2D2D2D2D002D2D2D2D2D2D722F6C
:103430006F20656E74726965732D2D2D2D2D2D00F5
:1034400062616C206F66660062616C206F6E0000C6
:10345000696E636F7272656374206E756D626572FA
:10346000206F66206172677300000000556E726500
:10347000636F676E697A656420636F6D6D616E64FA
:10348000000000002C70637572722C000A000000AE
:103490002C70766F6C742C0063656C6C5F6D61785A
:1034A0005F6D560063656C6C5F6361706163697426
:1034B000795F6341680000006E756D5F6D6F6475C4
:1034C0006C6573006D6F64756C655F63656C6C5FD4
:1034D000636F756E7400000063656C6C5F63686198
:1034E0007267655F635F726174696E675F634300F3
:1034F00062616C5F6F6E5F7468726573685F6D5652
:103500000000000062616C5F6F66665F74687265E0
:1035100073685F6D560000007061636B5F63656C7C
:103520006C735F700000000063765F6D696E5F63AF
:10353000757272656E745F6D4100000063765F6D39
:10354000696E5F63757272656E745F6D7300000003
:1035500063635F63656C6C5F766F6C746167655FF6
:103560006D56000063635F6368617267655F766FC5
:103570006C746167655F6D560000000063635F6394
:1035800068617267655F63757272656E745F6D41C5
:103590000000000063765F6368617267655F766F45
:1035A0006C746167655F6D560000000063765F6351
:1035B00068617267655F63757272656E745F6D4195
:1035C00000000000626D735F636F6D6D00000000AE
:1035D000746F74616C5F6E756D5F63656C6C7300A6
:1035E0007061636B5F6E616D650000007061636B9D
:1035F0005F63656C6C5F6D61785F6D560000000005
:103600007061636B5F63757272656E745F6D4100AC
:103610007061636B5F766F6C746167655F6D560098
:103620006661756C740000007365740068656C7089
:1036300000000000636F6E6669675F646566000086
:1036400062616C0063687267000000006D65617301
:10365000757265004353425F494E49545F4F464679
:10366000000000004353425F494E49545F444F4EAF
:10367000450000004353425F4348415247455F4F76
:10368000464600004353425F4348415247455F531B
:10369000544152545F535749544348004353425F87
:1036A0004348415247455F5357495443485F35307B
:1036B000300000004353425F4348415247455F5347
:1036C000454E445F353030004353425F43484152DA
:1036D00047455F5357495443485F32353000000037
:1036E0004353425F4348415247455F574149545F06
:1036F000323530004353425F4348415247455F43B0
:103700004C4F53455F434E54520000004353425FB9
:103710004348415247455F43430000004353425FE3
:103720004348415247455F43560000004353425FC0
:103730004348415247455F42414C00004353425F7A
:103740004348415247455F4641554C5400000000F4
:103750004353425F4348415247455F444F4E450003
:103760004353425F53534D5F4D4F44455F494E496C
:10377000540000004353425F53534D5F4D4F444547
:103780005F49444C450000004353425F53534D5F33
:103790004D4F44455F434841524745004353425FC4
:1037A00053534D5F4D4F44455F42414C414E43455D
:1037B00000000000424D535F4E4F5F434F4D4D00A0
:1037C000424D535F5945535F434F4D4D000000003C
:1037D0004D5931385F5041434B0000004D5931364F
:1037E0005F5041434B000000435553544F4D5F50D1
:1037F00041434B000C340000283600002C360000FA
:103800003436000040360000443600004C360000DC
:10381000010201010100010054360000643600007D
:1038200074360000843600009C360000B436000078
:10383000C8360000E0360000F43600000C37000007
:103840001C3700002C3700003C37000050370000C8
:10385000AC190000241A0000321A0000AC19000054
:10386000AC1900004C1A0000621A0000AC190000EC
:103870007E1A0000AC190000961A00009C1A000085
:10388000AC190000001A0000AE1A0000AC190000CC
:10389000B61A0000AC190000AC190000AC19000009
:1038A000AC190000041A0000AC190000AC190000AB
:1038B000AC190000AC190000AC190000001A00009F
:1038C000AC190000AC190000AC190000AC190000E4
:1038D000AC190000AC190000AC190000AC190000D4
:1038E000AC190000AC190000AC190000AC190000C4
:1038F000AC190000AC190000AC190000AC190000B4
:10390000AC190000AC190000AC190000AC190000A3
:10391000AC190000AC190000AC190000AC19000093
:10392000AC190000AC190000AC190000AC19000083
:10393000AC190000AC190000AC190000AC19000073
:10394000AC190000AC190000AC190000AC19000063
:10395000AC190000AC190000AC190000AC19000053
:10396000AC190000AC190000AC190000AC19000043
:10397000AC190000AC190000AC190000AC19000033
:10398000AC190000AC190000AC190000AC19000023
:10399000AC190000AC190000AC190000AC19000013
:1039A000AC190000AC190000AC190000AC19000003
:1039B000AC190000AC190000AC190000AC190000F3
:1039C000AC190000AC190000AC190000AC190000E3
:1039D000AC190000AC190000AC190000AC190000D3
:1039E000AC190000AC190000AC190000AC190000C3
:1039F000AC190000AC190000AC190000AC190000B3
:103A0000AC190000AC190000AC190000AC190000A2
:103A1000AC190000AC190000AC190000AC19000092
:103A2000AC190000AC190000AC190000AC19000082
:103A3000AC190000AC190000AC190000AC19000072
:103A4000AC190000AC190000AC1900007E1A00008F
:103A50001B5B0000440000001B5B4B001B5B442011
:103A60001B5B4400203E20004552524F523A746F77
:103A70006F206D616E7920746F6B656E730000004E
:103A80003E20000000000000C02709009005100043
:103A9000C05C1500F0B31A00200B2000009F24002A
:103AA000E0322900C0C62D0050973100E067350094
:103AB0007038390000093D00401640008023430063
:103AC000C0304600F42400000A2500000E25000046
:103AD00012250000162500001A2500001E250000F2
:103AE00089230000CD2300007523000000000000A2
:103AF00000000000000000000000000000000000C6
:103B00003031323334353637383961626364656653
:103B10006768696A6B6C6D6E6F70717273747576BD
:083B20007778797A00000000BB
:083B280098C5FF7F01000000B9
:043B30000100000090
:04000003000000C138
:00000001FF
