:1000000000200010C1000000E1000000E30000003B
:1000100000000000000000000000000000000000E0
:10002000000000000000000000000000E5000000EB
:100030000000000000000000E700000025010000B3
:10004000EB000000EB000000EB000000EB00000004
:10005000EB000000EB000000EB000000EB000000F4
:10006000EB000000EB000000EB000000EB000000E4
:10007000EB000000190F0000EB000000EB00000097
:10008000EB000000EB000000EB000000EB000000C4
:10009000EB0000000901000000000000000000006B
:1000A000EB000000EB000000EB000000000000008F
:1000B000EB000000EB000000EB000000EB00000094
:1000C0000549064A0020521A02DD043A8850FCDC39
:1000D00000F0E0FC00F0E2FA08010010B0090010A6
:1000E000FEE7FEE7FEE7FEE7FEE7FEE710B50122CA
:1000F0000400044B1A7000F0D5FE200001F04CF80B
:1001000010BDC046EC01001010B5034A0349044875
:1001100000F0B2FD10BDC04670010010F0010010EB
:1001200000800040024A1368013313607047C046E4
:100130005C060010FA210B4B10B51868890001F01D
:1001400091F9094A01385060C020084900060B6A3D
:100150001B021B0A03430B620023936007331360E7
:1001600010BDC0466006001010E000E000ED00E0A9
:1001700010B501F011F810BD70B50024184D06003F
:10018000642301221749280000F00EFD2C61EC6069
:10019000154D164964230122280000F005FD2C614D
:1001A000EC60A4220125124B124C9D5004329D504C
:1001B000200000F035FD3100200000F083FD032316
:1001C0008022C021E3607E33A360013B2363636828
:1001D00092031D43084B490065605A501A6070BD78
:1001E000F0010010080100107001001088010010DB
:1001F000004004400080004000E100E030B585B0E0
:1002000004000D0000F0D8FF00280AD002281ED0FC
:100210000022264B1A70012825D0062827D00F2847
:1002200001D005B030BD684601F0E6F86A462368A3
:10023000D2881A606A460821525E5A606A4652881D
:100240009A606B461B7BA37601236376E9E700F097
:100250009BFF012826D9154B1B78002BE1D1A868FC
:10026000FFF744FFDDE7684600F072FFD9E7684614
:1002700001F092F86B469B8823826B46DB88638291
:100280006B461B7A23756B465B7863756B469B7870
:10029000A3756B461B78E3756B46DB7823760123E9
:1002A0002377BEE70022014B1A70BAE7EC01001079
:1002B00000B583B06B4602889A8082881A806A46AD
:1002C000837A6846937001F0A9F8012809D9074B91
:1002D0001B78002B01D003B000BD0548FFF706FFD7
:1002E000F9E70022014B1A70F5E7C046EC01001057
:1002F00090D00300012300B583B001A8037001F082
:100300002DF8012809D9074B1B78002B01D003B029
:1003100000BD0548FFF7EAFEF9E70022014B1A701D
:10032000F5E7C046EC01001020A1070000B50379F5
:1003300083B0022B1CD0032B0FD0022301A8037023
:1003400001F03CF801280FD90B4B1B78002B02D190
:100350000A48FFF7CBFE03B000BD012301A80370DC
:1003600001F02CF80128EFD80022034B1A70F2E7B5
:10037000002301A80370E3E7EC01001090D0030014
:1003800070B5160080228B880D00C468520093421D
:100390002BD0C022920093422FD0FA21194A890013
:1003A0001368E31A8B4202D92B79002B18D1164A15
:1003B00016491368E31A8B4202D9337A002B0BD10A
:1003C000FA21134A89001368E31A8B4203D92800E3
:1003D0001460FFF7ABFF70BD1460FFF78BFFEFE712
:1003E00030001460FFF764FFE1E70A4800F0D4FE34
:1003F000C022AB8892009342CFD1074800F0CCFED8
:10040000CBE7C0466C0100100402001030750000FC
:100410008401001020A1070090D0030010B500F067
:1004200087FA10BD7047C04610B500F089FA10BDBC
:100430000023024A837113607047C0461002001007
:1004400070B50379022B29D0032B11D18C79002CA4
:100450002FD101248C719C1E664266410025F4B2A6
:100460005472957215605560C27EA2422DD070BD47
:100470008C79002C23D006248C7100245472947241
:10048000146054609A1E012A00D88CE0C37E002BB1
:10049000EDD1037F002BEAD18B71E8E78C7904253D
:1004A0002600AE43D5D0062CE1D8454DA4002C59EA
:1004B000A746A51E012DCCD9062CF6D9D7E70023D7
:1004C0005372937213605360D1E7022B62D0032BF7
:1004D000CDD111E000235372937213605360837E79
:1004E000002B01D106338B71C37E002BBFD00023BC
:1004F000537293721360536001338B71B7E70468D2
:100500000B6825685E68B54222D202238B712D4BA1
:100510001B6813602C4B1B6853600123537293724A
:10052000C37E002BA3D1002301209372507213606D
:10053000536088719BE704680B6824685B689C4281
:10054000E5D303238B71214B1B681360204BE2E73B
:100550001E4D1E6A2D68646815601D4D2D6855601E
:10056000012555729572DD697543AC420ED2194C66
:10057000C56824685B6A2C1B9C42D1D3002353724C
:1005800093721360536006338B7170E7114BC4682C
:100590001C60C5E702680B6812685B689A426D418F
:1005A00002358D7163E7022B00D060E702680B68AB
:1005B00012685B689A4200D359E701238B7156E7B2
:1005C0008816000008020010140200100C0200102F
:1005D000180200101002001070B500241F4D204EAC
:1005E000204B2148B42200211C605C601C725C72AC
:1005F0009C72356034717471B471F471306100F0C3
:10060000FBFFB422194892000021F06000F0F4FFD3
:100610002C230122EC54164B16491A71164A2C60F1
:1006200012686C60DA600022AC60EC602C616C6176
:10063000AC61EC612C626C62AC629C601C825C827E
:100640001A755A759A75DA7519609A76DA765A7645
:100650001A770C604C608C6070BDC046D0020010F0
:10066000080600100C0300101C02001038030010D4
:1006700018030010000300105C06001010B5040001
:10068000FFF7BCFDFFF7CEFE034B1B68E360FFF7EF
:10069000C5FEE07610BDC0465C06001070B5FFF7E1
:1006A0009BFF1248FFF764FDE1200002FFF764FDA5
:1006B000FFF740FD00F022F80D4E0E4D0E4C3200BB
:1006C0002900200000F042F929002000FFF7D6FFA2
:1006D00032002900200000F0ABF9707AFFF7A4FE89
:1006E000320029002000FFF74BFEEDE720A10700B4
:1006F0000C0300100806001018030010F8B55F4640
:1007000056464D464446F0B4A025ED05280000F0BD
:1007100041FA802304210120814C1B02E25810265B
:100720000A43E2507F4A7C315050E1580130014386
:10073000E15001217C48D167C15820273143C15085
:1007400000211164C6583E43C6505164C658203734
:100750003E43C6501160C658BA46C0373E43C650E5
:100760005162C6580137FF37BC463E438027C6500A
:100770005165C658FF00B9463E438027C650916573
:10078000C6583F01B8463E430427C6501167EE588D
:100790003E43EE50D161EE58370008263743EF5004
:1007A000D162EF5808363743EF501163EE583700E7
:1007B00020263743EF5057465163EE583743EF50EA
:1007C000D164EE58370080263743EF501165EE585C
:1007D0003700802676003743EF501166EE58370019
:1007E00066463743EF505166EE5837004E46374362
:1007F0000126EF509666EE58370046463743EF50D5
:10080000012501265567E55801273543E55009259F
:10081000AA4695676160E55807363543E550564668
:10082000902556512162E55807363543E550942509
:10083000083E56512164E55818363543E550A02549
:10084000183E5651203D6151E558F8363543E55084
:10085000082555614D4666466151E5583543E550DA
:100860000825956345464E466151E5583543E550A8
:100870000825D566802546466D016151E55835430A
:10088000E5500826982556518025AD016151012576
:10089000C4582C43C450082494604160C4580135A6
:1008A0002C43C450082494628160C45802352C4300
:1008B000C4500824D4650161C45804352C43C45085
:1008C0008C2415510162C45878352C43C450082437
:1008D0001462644601511548783DC4582743842466
:1008E000C75015514160C458063D2C43C4500824DC
:1008F00094678160C45802352C43C450082494671F
:100900000161C45804352C43C450AC230824D4508E
:1009100001623CBC90469946A246AB46F8BDC04633
:10092000000001500040044000000250000003504D
:10093000024B1869431E9841C0B270470000015035
:10094000014B40009860704700000150002310B533
:100950000B714B710800FFF76BFD10BD4B7930B583
:10096000052B0AD81E4C9B00E3589F4600231372A8
:1009700001224A711B4A8A60437630BD437E002BB8
:1009800025D1194C2568194CA542F6D9EFE701236A
:100990000B7100234B71164B8B60EEE70023137233
:1009A00003224A71124A8A604376E6E700231372F3
:1009B00004224A710E4A8A604376DEE701231372ED
:1009C00001334B71074B8B6000234376D5E700233F
:1009D000137205224A71064A8A604376CDE7C04603
:1009E000A416000020A107005C0600108813000078
:1009F00090D00300012810D0022808D0032813D17A
:100A0000012913D0023948424841C0B204E0814371
:100A1000013948424841C0B2704700230239C9B287
:100A200088425B41D8B2F7E70020F5E70120F3E701
:100A3000F0B5474680B40C79077906000D00200018
:100A400039009046FFF7D6FF002805D0012C1AD0B8
:100A5000002C1BD0032C13D9022C09D0032C07D057
:100A6000002C0AD1424629003000FFF777FF04E04E
:100A7000424629003000FFF7E3FC04BC9046F0BD7D
:100A8000AB79002BE8D12F713C00E5E76B79052BA2
:100A9000E8D1F8E7184A194B01201A60184A194B97
:100AA00019491A60002201230A644B644A644B64AA
:100AB0004A6C154B1042FBD023228E2180209A6075
:100AC00089005A5882435A501A007F38D1680E4B19
:100AD0000842FBD003221A67002201205A67013224
:100AE0005A675A6F08491042FBD00123074A8B67A7
:100AF0007F33CA507047C046006CDC0260060010AD
:100B000080BB000064060010008004405F0001000C
:100B1000032100B51B4A83B0136F0B40022B1CD07E
:100B2000032B0CD0012B02D0174803B000BD136C6F
:100B30001940F9D0012923D1144B1868F5E79168C1
:100B4000126C134016D0012B1AD11F200F4B0840F6
:100B50001B68013001935843E7E71F21536ADA0508
:100B60001940120F0A4B920001314900D05800F091
:100B700079FCDAE71F20044B084001305843D4E7E2
:100B80000020D2E700800440001BB700841600005C
:100B9000BC160000802240230249885803438B5032
:100BA0007047C046008004404360002301608260BB
:100BB0000361C36001207047F8B5C26803690D0086
:100BC00041680400D31A00208B420ED2100000F0BE
:100BD000CFFCA6682768714332007818290000F01E
:100BE000CDFC0120E3680133E360F8BDF8B50400F3
:100BF0000369E2680E0000209A420FD01800616875
:100C000000F0B6FCA568276869432A00791830000F
:100C100000F0B4FC0120236901332361F8BDC04614
:100C2000802110B58024074B64015A5822435A5042
:100C300098227F39995007238360043BC3600D33AA
:100C4000836210BD00800440F0B583B06A464369FA
:100C500004000E00D51D20279B0605D40AE02B7842
:100C6000236063691F4205D029003000FFF7BEFFF3
:100C70000028F4D103B0F0BDF0B50225436883B07D
:100C800004000F0016001D4210D16A466369D51D8D
:100C90000126DB0708D52368290038002B70FFF7F1
:100CA0008BFF63691E42F6D103B0F0BD1100FFF760
:100CB000CBFFF26833699A42E7D16368AB43636064
:100CC000E3E7C046F8B54F464646C0B40D01040000
:100CD000FFF71EFF2900070000F04AFC002936D06C
:100CE000280000F0BFFB0C22030000209A42404184
:100CF0000F2602001E4033011A438146310068432B
:100D0000904600F0AFFB4119380000F0ABFB4B46BA
:100D1000050018016843310000F0A4FB8022FF2188
:100D2000E3681343E3600B002B4023602B0A0B4066
:100D30006360E36829019343E36043460918A362B3
:100D4000380000F08FFB0CBC90469946F8BD290096
:100D5000380000F087FB0023050098460020DDE7FF
:100D60000122024B1860024B1A70704744060010B3
:100D70004B06001010B50B4C0B4B60741B68200029
:100D80009B68DB68984721000848FFF715FF00289B
:100D900006D10122064B1A708022064B12011A60FE
:100DA00010BDC04698090010F81FFF1F3006001044
:100DB0004B0600104406001070B50400022807D945
:100DC00001220D4B1A7080220C4BD2001A6070BDAC
:100DD00000230B4E0B4D335429000B48FFF706FF41
:100DE0000028F4D0094B6C741B6828009B681B69B1
:100DF000984701233355EAE74B06001044060010DC
:100E000048060010800900101C060010F81FFF1F84
:100E10008022F0B50500802047460C002049800262
:100E20008B5880B403438B50FFF772FE290000F00B
:100E300019FB002303279846012343449C463E00A8
:100E4000190001253200032390420ED001335218BD
:100E5000122BF9D101356144F619212DF2D16346E7
:100E60000337102B17D0E046E6E74246033B58080D
:100E700022600200032811D8F02196010901020224
:100E80000A403243013D1543E0221B1A1B03D201E5
:100E900013401D43656004BC9046F0BD0322EBE7A0
:100EA00000800440074B00205B681B0608D5082221
:100EB000054B013059689143596059680A435A609B
:100EC0007047C0460000054000800440020000203A
:100ED000002A0FD006230F4913409B00CB589F4692
:100EE00080230C20DB009A4204D080231B019A420D
:100EF0000DD0013070470520FCE70620FAE70720F7
:100F0000F8E70820F6E70920F4E70A20F2E70F20C7
:100F1000F0E7C046FC160000034B10B51B689B6849
:100F20005B68984710BDC046F81FFF1F1B2370B5B4
:100F30000C4C0D4D63742B6821609B6860609B684E
:100F4000200098471C2363742B6820009B689B68D3
:100F500098471D2363742B6820009B689B68984703
:100F600070BDC04698090010F81FFF1F1E2370B502
:100F7000084C094D63742B6821609B6860609B6816
:100F8000200098471F2363742B6820009B689B6890
:100F9000984770BD98090010F81FFF1FF0B5002496
:100FA000204D8BB00600102318221F492800FFF7A0
:100FB000FBFD2C61EC601D4D1D49102318222800FB
:100FC000FFF7F2FD2C61EC6002AD2A00194B83CBD8
:100FD00083C283CB83C203CB03C23000164E694663
:100FE000FFF716FF336801219B6868461B68984726
:100FF000336828009B68DB69984780220F4B920179
:101000001A6000210020FFF791FF00210020FFF768
:10101000ADFF0B4B1C700B4B1C600B4B1C800BB0C3
:10102000F0BDC04630060010000800101C0600107D
:101030008006001018170000F81FFF1F00E100E0F5
:101040004B0600104406001048060010094B10B56E
:101050001A78002A06D000221A70074B1868FFF78A
:1010600035FF10BD01000548FFF7C0FD4342584160
:10107000C0B2F6E74B060010440600103006001020
:10108000164B70B51A78002A11D1154C6378002BD5
:1010900014D0A378002B1DD001001248FFF78CFD5F
:1010A00003005A4253410E205B42184070BD00229B
:1010B0001A700D4B1868FFF709FFF7E701250123A8
:1010C00043740A4B1B689B681B69984701230020E7
:1010D0006355EBE702250233F2E7C0464B060010EA
:1010E000480600101C06001044060010F81FFF1FE1
:1010F0000300084870B5036002740023002A06D07C
:10110000CD5CC41801332572DCB2A242F8D8FFF7D7
:10111000B7FF70BD6806001010B586B004006846C1
:10112000FFF794FF002811D1009B23606B46197CC8
:10113000217100290AD00139C9B20131621D591843
:101140001C7A0133147001328B42F9D106B010BD04
:1011500030B50B4D0400287800280FD1094A1368D8
:101160002360137905322371631D0D341178013228
:1011700019700133A342F9D101232B7030BDC04651
:10118000000100104C0600100122024B18781A7062
:101190007047C0460001001010B5064CFFF7FEFE78
:1011A00020000021FFF7C2FE00212000FFF7DEFE35
:1011B00010BDC04600F8FF1F10B5314C2000FFF7EE
:1011C000ABFF304A03001070012825D00220002B0D
:1011D00000D010BD2368F22B50D010D92A4A934278
:1011E00044D025D8F42B32D044D3284A042093424B
:1011F000EFD0274A01309342EBD00120E9E7D32B0F
:101200003AD00BD8D02B26D02CD90920D12BE0D026
:101210000330D22BDDD0F0E70020DAE7D52B18D051
:1012200026D30A20F02BD4D00430F12BD1D0E4E720
:10123000184A934209D010D9174A11209342C8D0B6
:10124000164A0B389342C4D0D7E70820C1E71420D0
:10125000BFE71220BDE70D20BBE7013A0320934210
:10126000B7D0CAE70930C02BB3D0C6E70720B0E734
:101270001320AEE71020ACE71520AAE70F20A8E75F
:101280004C0600100001001026050000210500009A
:101290002205000001060000F4E50618E550FF18DD
:1012A0000022002330B583B0009201936A46431DAB
:1012B00007320D301C7801331470013A8342F9D1A2
:1012C000019A009B10011C0F04430120044095006B
:1012D0000C709C0F2C430440D5004C705C0F2C43C9
:1012E000044055018C70DC0E2C430440CC70CA8045
:1012F000140CDB0F5200134303408C800B7203B0BD
:1013000030BDC0460022002310B582B00092019388
:101310006A46431D07320D301C7801331470013AC0
:101320008342F9D17F200400009B019A1C400C707D
:10133000D40D4C805C0C20400871D803800DC8800F
:101340005002401508811B0E100203439B05120535
:101350009B0DD20F4B810A7302B010BD00B585B052
:1013600000226946037868460A73CA728A720021AD
:10137000DB0703721B0E4172C271694682714371B1
:101380000123C0200B71C000012205310090FFF73E
:10139000AFFE05B000BDC04670B5064D2C78002CE0
:1013A00005D101000448FFF77BFF01232B702000CB
:1013B00070BDC046000100104C06001000B585B09D
:1013C00000226946037868460A73CA728A7200214D
:1013D000DB0703721B0E4172437169460123C27120
:1013E000827104480B71012205310090FFF780FEE5
:1013F00005B000BD0106000070B5064D2C78002C2C
:1014000005D101000448FFF77DFF01232B70200068
:1014100070BDC046000100104C06001000B5838866
:10142000028885B01B041343827868460021D207E6
:101430000273120E42721A0A0372C2711A0C1B0E48
:10144000C1728172437169460523827104480B7130
:10145000052205310090FFF74BFE05B000BDC046E8
:10146000F4E50618002243088B4274D303098B422B
:101470005FD3030A8B4244D3030B8B4228D3030C64
:101480008B420DD3FF22090212BA030C8B4202D306
:101490001212090265D0030B8B4219D300E0090A2E
:1014A000C30B8B4201D3CB03C01A5241830B8B4237
:1014B00001D38B03C01A5241430B8B4201D34B0320
:1014C000C01A5241030B8B4201D30B03C01A524185
:1014D000C30A8B4201D3CB02C01A5241830A8B420A
:1014E00001D38B02C01A5241430A8B4201D34B02F3
:1014F000C01A5241030A8B4201D30B02C01A524157
:10150000CDD2C3098B4201D3CB01C01A524183090A
:101510008B4201D38B01C01A524143098B4201D344
:101520004B01C01A524103098B4201D30B01C01A6F
:101530005241C3088B4201D3CB00C01A52418308E9
:101540008B4201D38B00C01A524143088B4201D316
:101550004B00C01A5241411A00D201465241104676
:101560007047FFE701B5002000F006F802BDC04655
:101570000029F7D076E770477047C04670B50F2A4C
:1015800032D90C0004430B00A40731D1150004002C
:10159000103D2D0901352D0149191E6826605E6830
:1015A00066609E68A660DE681033E660103499427B
:1015B000F3D10F2345191340032B1BD91C1F002304
:1015C000A4080134A400CE58EE5004339C42FAD152
:1015D00003232D1909191A4005D00023CC5CEC54C3
:1015E00001339A42FAD170BD0500002AF5D1FAE71D
:1015F0000500F2E71A00F8E770B583073FD0541EE4
:10160000002A3BD0CEB20300032503E0621E002C6B
:1016100034D0140001335A1E16702B42F6D1032C1D
:1016200024D9FF250D402A0215432A0415430F2C07
:1016300011D92600103E3609013636011A009B19D1
:10164000156055609560D56010329342F8D10F2235
:101650001440032C0AD9261FB6080136B6001A001A
:101660009B1920C29342FCD103221440002C05D0C8
:10167000C9B21C19197001339C42FBD170BD140012
:101680000300CCE700000000BE0400005604000088
:1016900036050000FE040000D40400006E040000C3
:1016A0007A0400006C090000BC0900009C090000DD
:1016B000AC0900007C0900008E0900000000000059
:1016C000C027090090051000C05C1500F0B31A0097
:1016D000200B2000009F2400E0322900C0C62D000E
:1016E00050973100E06735007038390000093D003F
:1016F0004016400080234300C0304600E00E00004A
:10170000F60E0000FA0E0000FE0E0000020F0000B0
:10171000060F00000A0F0000750D0000B90D000053
:10172000610D00000000000000000000000000004B
:081730000000000000000000B1
:0817380088E9FF7F01000000B9
:0417400001000000A4
:04000003000000C138
:00000001FF
