:1000000000200010C1000000E1000000E30000003B
:1000100000000000000000000000000000000000E0
:10002000000000000000000000000000E5000000EB
:100030000000000000000000E7000000E9000000F0
:10004000EB000000EB000000EB000000EB00000004
:10005000EB000000EB000000EB000000EB000000F4
:10006000EB000000EB000000EB000000EB000000E4
:10007000EB0000003D050000EB000000EB0000007D
:10008000EB000000EB000000EB000000EB000000C4
:10009000EB000000EB00000000000000000000008A
:1000A000EB000000EB000000EB000000000000008F
:1000B000EB000000EB000000EB000000EB00000094
:1000C0000549064A0020521A02DD043A8850FCDC39
:1000D00000F0F6F900F068F900010010D80A0010ED
:1000E000FEE7FEE7FEE7FEE7FEE7FEE70023024A43
:1000F000837113607047C0460801001070B5037922
:10010000022B29D0032B11D18C79002C2FD1012463
:100110008C719C1E664266410025F4B25472957241
:1001200015605560827CA2422DD070BD8C79002C68
:1001300023D006248C71002454729472146054608D
:100140009A1E012A00D88CE0837C002BEDD1C37C61
:10015000002BEAD18B71E8E78C7904252600AE43A9
:10016000D5D0062CE1D8504DA4002C59A746A51E89
:10017000012DCCD9062CF6D9D7E700235372937200
:1001800013605360D1E7022B62D0032BCDD111E075
:1001900000235372937213605360437C002B01D190
:1001A00006338B71837C002BBFD000235372937274
:1001B0001360536001338B71B7E704680B68A5685F
:1001C0005E68B54222D202238B71384B1B681360E4
:1001D000374B1B685360012353729372837C002B4F
:1001E000A3D1002301209372507213605360887171
:1001F0009BE704680B68A4685B689C42E5D3032313
:100200008B712C4B1B6813602B4BE2E7294D1E6A48
:100210002D6824691560284D2D685560012555729B
:100220009572DD697543AC420ED2244CC5682468D2
:100230005B6A2C1B9C42D1D30023537293721360D0
:10024000536006338B7170E71C4BC4681C60C5E7B4
:1002500002680B6892685B689A426D4102358D7145
:1002600063E7022B15D0164B1A88002A00D15CE7F1
:100270000B6804685D6983689200E81823680124AC
:100280009A181D68854200D98C7104339342F8D1C5
:100290004BE702680B6892685B689A4200D344E7B8
:1002A00001238B7141E7C046DC050000000100100E
:1002B0000C010010040100101001001008010010D2
:1002C00014010010F0B5474600242D4D2D4E2E4B45
:1002D0002E4880B4B42200211C605C601C725C72E9
:1002E0009C72356034717471B471F471F06000F017
:1002F0002FF927480021B060B426B600320000F084
:1003000027F9382301210022EC54224B2C6019716B
:1003100021496C600968AC60EC602C616C61AC6177
:10032000EC612C626C62AC62EC622C63AC86EC8695
:100330001A4DD9601D605A749A741A74DA749C60EC
:10034000174B320098461800002100F001F9154FB4
:1003500032003800002100F0FBF843462B600123F7
:100360005B42EB60633B6F60AC602C616C612C8323
:100370006B83AC832C84EC8304BC9046F0BDC046F8
:100380009C040010BC0A0010CC070010E803001009
:10039000EC070010D8070010CC0A0010A8070010C6
:1003A00018010010D804001070B5FFF78BFF074E3E
:1003B000074D084C32002900200000F00DF83200F3
:1003C0002900200000F04AF8F9E7C046CC070010E9
:1003D000BC0A0010D8070010002310B502680B718A
:1003E0004B7108001383FFF781FE10BD4B7910B5E8
:1003F000012B0BD0002B04D0022B01D101230B7158
:1004000010BD012414724C710374F9E7047C002CB4
:10041000F6D00024147202220B714A710474EFE7C3
:10042000012810D0022808D0032813D1012913D0A5
:10043000023948424841C0B204E081430139484290
:100440004841C0B2704700230239C9B288425B41BB
:10045000D8B2F7E70020F5E70120F3E7F0B547460B
:1004600080B40C79077906000D0020003900904611
:10047000FFF7D6FF002805D0012C1AD0002C1BD086
:10048000032C13D9022C09D0032C07D0002C0AD13D
:10049000424629003000FFF7A9FF04E04246290048
:1004A0003000FFF72BFE04BC9046F0BDAB79002B6B
:1004B000E8D12F713C00E5E76B79022BE8D1F8E732
:1004C000184A194B01201A60184A194B19491A6029
:1004D000002201230A644B644A644B644A6C154B46
:1004E0001042FBD023228E2180209A6089005A5826
:1004F00082435A501A007F38D1680E4B0842FBD015
:1005000003221A67002201205A6701325A675A6F84
:1005100008491042FBD00123074A8B677F33CA503A
:100520007047C046006CDC02D00A001080BB00009F
:10053000D40A0010008004405F000100034B10B596
:100540001B689B685B68984710BDC046F81FFF1F7B
:1005500070B583073FD0541E002A3BD0CEB20300B3
:10056000032503E0621E002C34D0140001335A1E10
:1005700016702B42F6D1032C24D9FF250D402A02F8
:1005800015432A0415430F2C11D92600103E3609B5
:10059000013636011A009B19156055609560D560CB
:1005A00010329342F8D10F221440032C0AD9261F8F
:1005B000B6080136B6001A009B1920C29342FCD13E
:1005C00003221440002C05D0C9B21C191970013344
:1005D0009C42FBD170BD14000300CCE77A010000FF
:1005E00012010000F2010000BA01000090010000B9
:0805F0002A01000036010000A1
:0805F800C8FAFF7F01000000BA
:04000003000000C138
:00000001FF
