:1000000000200010C1000000E1000000E30000003B
:1000100000000000000000000000000000000000E0
:10002000000000000000000000000000E5000000EB
:100030000000000000000000E700000025010000B3
:10004000EB000000EB000000EB000000EB00000004
:10005000EB000000EB000000EB000000EB000000F4
:10006000EB000000EB000000EB000000EB000000E4
:10007000EB000000B9200000EB000000EB000000E6
:10008000EB000000EB000000EB000000EB000000C4
:10009000EB0000000901000000000000000000006B
:1000A000EB000000EB000000EB000000000000008F
:1000B000EB000000EB000000EB000000EB00000094
:1000C0000549064A0020521A02DD043A8850FCDC39
:1000D00001F0D6FC00F0D0FF08010010780A0010F3
:1000E000FEE7FEE7FEE7FEE7FEE7FEE710B50122CA
:1000F0000400044B1A7001F0A5FF200002F01CF967
:1001000010BDC046EC01001010B5034A0349044875
:1001100001F082FE10BDC04670010010F001001019
:1001200000800040024A1368013313607047C046E4
:1001300024070010FA210B4B10B51868890002F053
:1001400061FA094A01385060C020084900060B6A6C
:100150001B021B0A03430B620023936007331360E7
:1001600010BDC0462807001010E000E000ED00E0E0
:1001700010B5040002F0E6FB220003000249034828
:1001800001F01CFE10BDC046700100100080004050
:1001900010B5FFF7EDFF04000248FFF7E9FF201854
:1001A00010BDC046442A000010B502000B000248F2
:1001B000024901F029FE10BD00800040F00100104E
:1001C00010B5040002F0BEFB21000200014801F05E
:1001D000C7FD10BD0080004010B5FFF7F1FF04001F
:1001E0000248FFF7EDFF201810BDC046442A00006A
:1001F00010B502F0A1F810BD70B50024184D06002E
:10020000642301221749280001F0C4FC2C61EC6032
:10021000154D164964230122280001F0BBFC2C6116
:10022000EC60A4220125124B124C9D5004329D50CB
:10023000200001F081FD3100200001F013FE0323B6
:100240008022C021E3607E33A360013B23636368A7
:1002500092031D43084B490065605A501A6070BDF7
:10026000F00100100801001070010010880100105A
:10027000004004400080004000E100E030B585B05F
:1002800004000D0002F068F800280AD002281ED0F1
:100290000022264B1A70012825D0062827D00F28C7
:1002A00001D005B030BD684602F076F96A46236891
:1002B000D2881A606A460821525E5A606A4652889D
:1002C0009A606B461B7BA37601236376E9E702F015
:1002D0002BF8012826D9154B1B78002BE1D1A868F3
:1002E000FFF704FFDDE7684602F002F8D9E7684649
:1002F00002F022F96B469B8823826B46DB8863827F
:100300006B461B7A23756B465B7863756B469B78EF
:10031000A3756B461B78E3756B46DB782376012368
:100320002377BEE70022014B1A70BAE7EC010010F8
:1003300000B583B06B4602889A8082881A806A462C
:10034000837A6846937002F039F9012809D9074B7E
:100350001B78002B01D003B000BD0548FFF7C6FE97
:10036000F9E70022014B1A70F5E7C046EC010010D6
:1003700090D00300012300B583B001A8037002F000
:10038000BDF8012809D9074B1B78002B01D003B019
:1003900000BD0548FFF7AAFEF9E70022014B1A70DD
:1003A000F5E7C046EC01001020A1070000B5037975
:1003B00083B0022B1CD0032B0FD0022301A80370A3
:1003C00002F0CCF801280FD90B4B1B78002B02D17F
:1003D0000A48FFF78BFE03B000BD012301A803709C
:1003E00002F0BCF80128EFD80022034B1A70F2E7A4
:1003F000002301A80370E3E7EC01001090D0030094
:1004000070B5160080228B880D00C468520093429C
:100410002BD0C022920093422FD0FA21194A890092
:100420001368E31A8B4202D92B79002B18D1164A94
:1004300016491368E31A8B4202D9337A002B0BD189
:10044000FA21134A89001368E31A8B4203D9280062
:100450001460FFF7ABFF70BD1460FFF78BFFEFE791
:1004600030001460FFF764FFE1E70A4801F064FF21
:10047000C022AB8892009342CFD1074801F05CFFC5
:10048000CBE7C0466C01001004020010307500007C
:100490008401001020A1070090D0030010B501F0E6
:1004A0001FFA10BD7047C04610B501F021FA10BD0B
:1004B00010B5040001F022FA607701F031FAA0775C
:1004C00001F024FAE07701F00BFA2023E05410BD8C
:1004D00000230F4A70B513608371CC68CB6A0D4A54
:1004E0005C438B6AA4B26343086913608B680D0098
:1004F0005843CB690A21584302F084F8064B186030
:100500006B685C43054B1C60054B186070BDC046B2
:100510001002001008020010140200100C0200105B
:10052000180200102023F0B5C45C002C11D01B3B36
:100530008B7103790525022B07D0032B33D1AE1E17
:100540000323012E0DD9062D1BD8624EAD0075591F
:10055000AF460379022B15D0032B1BD18D79002DCB
:10056000EDD101238B7102339C1E6642664100254A
:10057000F4B25472957215605560C27EA24200D1E9
:100580008DE0F0BD8D7904262F00B743DBD1012427
:100590008C71E9E78C79002C05D10023537293729A
:1005A00013605360EDE706248C710024547294723A
:1005B000146054609A1E012A77D9C37E002BE0D1C3
:1005C000037F002BDDD18B71DBE704680B682568A6
:1005D0005E68B54241D202238B713F4B1B681360AA
:1005E0003E4B1B685360012353729372C37E002BF2
:1005F000C7D1002301209372507213605360887139
:10060000BFE700235372937213605360002CB8D07D
:1006100001238B71B5E704680B6824685B689C4212
:10062000DBD303238B712E4B1B6813602D4BD8E754
:1006300000235372937213605360837E002B01D1A9
:1006400006338B71C37E002B9BD0002353729372B1
:100650001360536001338B7193E7214D1E6A2D683F
:10066000646815601F4D2D6855600125557295729F
:10067000DD697543AC420ED21B4CC56824685B6AC9
:100680002C1B9C42B2D300235372937213605360AD
:1006900006338B7175E7144BC4681C60A6E7022B08
:1006A0000FD0032B00D06CE7D4E7022B00D068E713
:1006B00002680B6812685B689A4200D361E7012305
:1006C000A7E702680B6812685B689A426D410235C1
:1006D0008D7156E7482A000008020010140200102D
:1006E0000C020010180200101002001010B544682F
:1006F0002C49200002F0E2F800282ED02A492000E0
:1007000002F0DCF8002842D02849200002F0D6F898
:1007100000280FD1264C23685B7A002B25D1254871
:10072000FFF736FD23689B7A002B25D02248FFF780
:100730002FFD19E02149200002F0C0F800281FD049
:100740001F49200002F0BAF8002827D1184B1A6878
:100750000123917A4B40937206E00122144B194811
:100760001B681A72FFF714FD10BD1348FFF710FD48
:1007700023689B7A002BD9D10E48FFF709FDF3E7D8
:100780000B4B1A680123517A4B405372ECE7084B2C
:100790001B6818720C48FFF7FBFCE5E70B48FFF7F6
:1007A000F7FCE1E7F02C0000E82C0000502B0000E3
:1007B0001C020010702B00005C2B0000842B00003A
:1007C000902B0000342B0000402B00009C2B0000DD
:1007D000F8B54F464646C0B4B64B80461F683B79D5
:1007E000012B22D1B44B466899461D1DB349002404
:1007F00000E002CD300002F061F800281CD0013486
:10080000E4B20C2CF5D14D464C461435AC4900E011
:10081000216B300002F052F8002813D00434A542B6
:10082000F6D1A848FFF7B4FC02E0A748FFF7B0FCF8
:100830000CBC90469946F8BD0B2C1FD8A34BA400C6
:100840001B599F46A248FFF7A3FCF1E7434699686E
:100850003C680A78002A00D127E100230131980082
:10086000C3185B0001319B184A1E1278303B002AE6
:10087000F5D163629748FFF78BFCD9E74346996847
:100880003C680A78002A00D111E100230131980068
:10089000C3185B0001319B184A1E1278303B002AB6
:1008A000F5D123608B48FFF773FCC1E74346996895
:1008B0003C680A78002A00D1EFE00023013198005B
:1008C000C3185B0001319B184A1E1278303B002A86
:1008D000F5D163607F48FFF75BFCA9E74346996861
:1008E0003C680A78002A00D1DBE00023013198003F
:1008F000C3185B0001319B184A1E1278303B002A56
:10090000F5D1A3607348FFF743FC91E7434699682C
:100910003C680A78002A00D1BBE00023013198002E
:10092000C3185B0001319B184A1E1278303B002A25
:10093000F5D1E3606748FFF72BFC79E743469968F8
:100940003C680A78002A00D1ADE00023013198000C
:10095000C3185B0001319B184A1E1278303B002AF5
:10096000F5D163615B48FFF713FC61E74346996883
:100970003C680A78002A00D191E0002301319800F8
:10098000C3185B0001319B184A1E1278303B002AC5
:10099000F5D1A3614F48FFF7FBFB49E74346996850
:1009A0003C680A78002A70D0002301319800C318EF
:1009B0005B0001319B184A1E1278303B002AF5D1AA
:1009C000E3624448FFF7E4FB32E7434699683C683A
:1009D0000A78002A5FD0002301319800C3185B0019
:1009E00001319B184A1E1278303B002AF5D1236151
:1009F0003848FFF7CDFB1BE7434699683C680A7807
:100A0000002A44D0002301319800C3185B00013153
:100A10009B184A1E1278303B002AF5D1E3612D481D
:100A2000FFF7B6FB04E7434699683C680A78002A5A
:100A300029D0002301319800C3185B0001319B18B5
:100A40004A1E1278303B002AF5D123622148FFF775
:100A50009FFBEDE6434699683C680A78002A10D06F
:100A6000002301319800C3185B0001319B184A1E16
:100A70001278303B002AF5D1A3621648FFF788FBB5
:100A8000D6E60023F8E70023DFE7002398E70023FA
:100A9000C4E700234DE70023A9E7002319E700235B
:100AA00077E700232DE700235BE70023E1E600233F
:100AB000F7E6C0462C020010C42A0000B42B000048
:100AC000C02B0000102C0000C82B0000642A00007E
:100AD000F42B0000EC2B0000F0B5504D87B04668B9
:100AE0002F1D4F49002400E002CF300001F0E6FE48
:100AF000002815D00134E4B20C2CF5D1494900E0AE
:100B0000296B300001F0DAFE00280FD00134E4B286
:100B10000435112CF4D14448FFF73AFB07B0F0BD7F
:100B20000B2C3ED8414BA4001B599F460E2C17D0CE
:100B30000FD90F2C30D0102C17D13D4B1A68202321
:100B4000D05C0A2201A901F077FF01A8FFF720FB82
:100B5000E4E70D2C09D1364B1B681B681868F0E7D9
:100B6000334B1B681B685868EBE7324C324A2368EA
:100B70001B799B009858FFF70BFB23682F4A5B7982
:100B80009B009858FFF704FB23682D4A9B799B0034
:100B90009858FFF7FDFAC1E7254B1B681B6898685A
:100BA000CFE7244B1B681B681868CAE7214B1B68FA
:100BB0001B685868C5E71F4B1B681B689868C0E72F
:100BC0001C4B1B681B68D868BBE71A4B1B681B686B
:100BD000D86AB6E7174B1B681B681869B1E7154B55
:100BE0001B681B685869ACE7124B1B681B68986947
:100BF000A7E7104B1B681B68D869A2E70D4B1B6861
:100C00001B68186A9DE70B4B1B681B68586A98E7BE
:100C1000084B1B681B68986A93E7C046C42A00000B
:100C2000B42B0000C02B0000242C0000942A0000EC
:100C3000280200102C020010082B0000942F000046
:100C4000AC2F000010B50E4B1B681B79013B012B2C
:100C500003D90C48FFF79CFA10BD0B4B1B681A78A0
:100C6000002A05D0002209481A70FFF791FAF3E72D
:100C700001221A7001329A700548FFF789FAEBE7F2
:100C80002C020010502C00001C0200103C2C000014
:100C9000482C000010B544680F49200001F00EFEFA
:100CA000002809D00D49200001F008FE00280BD0D3
:100CB0000B48FFF76DFA10BD0A4B186800F0F2FC04
:100CC0000948FFF765FAF6E7064B186800F0C8FC1C
:100CD0000548FFF75DFAEEE7642C00006C2C00007D
:100CE000102C00002C020010EC2B000070B51F49E6
:100CF00046681F4D002400E02968300001F0DEFD49
:100D0000002808D00134E4B20435072CF4D1194886
:100D1000FFF72EFA70BD184BA200D058FFF75CFA0F
:100D20001448FFF725FA012CF4D81448FFF754FAB9
:100D3000134D14482C1D303500E001CCFFF74CFA60
:100D4000AC42FAD11048FFF747FA1048FFF744FACF
:100D50000F48FFF741FA0F48FFF73EFA0E48FFF73A
:100D60003BFA0E48FFF738FAD4E7C046742C00006F
:100D7000702F00004C2B0000702F0000782C00001A
:100D8000C42A0000B42B0000902C0000C02B0000EF
:100D9000A82C0000BC2C0000CC2C0000DC2C000097
:100DA00070B51B4B1B681D7902239D43012D03D099
:100DB0001848FFF7EDF970BD44681749200001F0AD
:100DC0007DFD164B002817D01E6803233570B370C5
:100DD0002278002A19D00023601C9900CB185B00F0
:100DE00001309B18421E1278303B002AF5D1736007
:100DF0000B48FFF7CDF9DEE701221B68524218705D
:100E00005A600848FFF7C4F9D5E70023EFE7C0466A
:100E10002C020010502C0000E82C00001C020010D6
:100E2000EC2C0000E42C0000074B1860074B196005
:100E3000074B01211A6000239170137053701372D5
:100E4000537293727047C046280200102C020010A3
:100E50001C020010F0B547460E6880B488460700B3
:100E6000114D1249002400E02968300001F026FDF0
:100E7000002809D001340435072CF5D10C48FFF7C0
:100E800087F904BC9046F0BD0A4B013F1B5DBB4295
:100E900003D00948FFF77CF9F3E7084BA400E358B7
:100EA00040469847EDE7C046702F0000742C0000C4
:100EB000102D00008C2F0000F42C0000182B0000D7
:100EC000F0B51D00037A87B004000E00002B13D08C
:100ED000437A002B06D0FA22214F92003B68EB1A8E
:100EE000934224D8A37A002B06D0FA221D4C9200FC
:100EF0002368EB1A934201D807B0F0BD0A2201A97A
:100F0000280001F099FD01A8FFF75AF91648FFF7EC
:100F100057F933680A22986801A901F08DFD01A8EC
:100F2000FFF75AF91148FFF74BF92560E4E70A2269
:100F300001A9280001F080FD01A8FFF741F90C4844
:100F4000FFF73EF933680A22586801A901F074FDE1
:100F500001A8FFF741F90548FFF732F93D60C1E705
:100F60002002001024020010342D0000302D00005B
:100F7000282D000070B50024224B234D234E1C6009
:100F80005C601C725C729C722148224BB42200216E
:100F9000B360356034717471B471F471306101F013
:100FA00047FCB4221C4892000021F06001F040FC94
:100FB00001221A4B20201A71194A1A491268EC6250
:100FC000DA6000222C606C60AC60EC602C616C61BB
:100FD000AC61EC612C626C62AC629C601C825C82D5
:100FE0001A755A759A75DA7519609A76DA765A769C
:100FF0001A775A779A77DA771A540C604C608C60BB
:1010000070BDC0462C030010F0020010D006001086
:101010003C02001020A1070000040010380300105B
:10102000240700102003001010B50400FFF726F974
:10103000FFF738FA044B1B68E360FFF72FFAE076FE
:101040002000FFF735FA10BD24070010F8B5084E50
:1010500032213000FFF7A8F8051E08D00024054F04
:10106000315D3800013400F05BFAA542F8D1F8BDDB
:101070005C03001068030010F0B5474680B4FFF72A
:1010800079FF2148FFF7B4F8E1200002FFF7B4F838
:10109000FFF750F800F00AFB1C4C200000F002FBA8
:1010A0001B4D1C4E1C4B32002100280000F042FC5E
:1010B0001A4F1B49380000F0B1F93800194900F007
:1010C000CFF9194F21003A002800FFF7ADFE174B6A
:1010D0009846FFF7BBFF21002800FFF7A5FF32006D
:1010E0002100280000F09AFC707AFFF7DDF9320049
:1010F00021002800FFF784F9434622001B682900DD
:101100003800FFF7DDFEE4E720A10700D00600105D
:10111000380300102C030010F002001068030010C8
:1011200071010000550E000030020010240700106D
:10113000F0B5050083B006220F006846002101F0DB
:1011400077FB114B6A1E9A4219D800260136731E8E
:101150006B4428000A211C0001F0DAFA30312170BA
:1011600028000A2101F04EFA051EEFD123003A00B3
:10117000BF191978013B117001329742F9D1002350
:1011800038003B7003B0F0BDFEFF000000B585B035
:101190006A46094B1B881380352393700133D37043
:1011A000064B01933323D371432202AB1A800368A9
:1011B0006846984705B000BDC8310000441B5B007D
:1011C00030B585B0102205000C006846002101F002
:1011D0002FFB69460F4B1A880A809B788B70002C76
:1011E0000CDD02312000FFF7A3FF02220A4901F0C3
:1011F00095FA2B686846984705B030BD002CFBD0A7
:1012000060420231FFF794FF0222044901F086FA9E
:10121000EFE7C046C8310000D02E0000CC310000FE
:10122000F0B55F4656464D4644469423F0B40C0054
:101230000600C35883B019489346984700232500F9
:1012400001AF3B707B708433F358503575199C4265
:1012500014DA20239A4674339946103B98462B782B
:10126000002B00D153463B704B463800F35898474B
:101270004346F35801340135A342F0DC9436300084
:10128000FFF784FF59463000FFF79AFF03B03CBCDC
:1012900090469946A246AB46F0BDC046D03100000C
:1012A000F8B546464F4680465023C0B4046C4344CC
:1012B000065D9946002E00D18DE025003300002701
:1012C0000133ED183F2D00DD403D43465B5D0137A6
:1012D000002BF5D1434600291AD19A6CBA4213DC8F
:1012E000002E11D07B1E9A4204D128E0CB43DB199B
:1012F0009A4224D00136A4193F2C00DD403C4346DD
:101300001E5D0131002EF1D10CBC90469946F8BD0E
:101310009B6C002B5DDD4246013B9364002E0AD19D
:1013200044E00136A4193F2C00DD403C4246165DE6
:10133000002E3BD0013FBB42F3D1350037E043469E
:1013400001329A6433193F2B1CDC332200214846BA
:1013500001F06EFA611C41443200484601F0DEF9AA
:1013600043461B5D41468422882440468B5094307E
:101370000B51FFF70BFF434600211A594046FFF778
:101380004FFFC1E73F2533220021484601F050FAC4
:101390002D1B611C41442A00484601F0BFF94B4611
:1013A000721B5819414601F0B9F9D9E700256319B4
:1013B0003F2BCFDD3F22611C161B414432004846C3
:1013C00001F0ACF94B46AA1B9819414601F0A6F969
:1013D000C6E70023C6E700277CE7C046942370B524
:1013E000040088268425C3580B4898472000A35939
:1013F00062595030C118D21A013B0132C01801F0B5
:10140000CBF90021A359013BA3516359E218503293
:10141000013B1170635170BDD431000070B5040000
:101420000D0033220021503001F002FA0021402249
:10143000200001F0FDF90023842223646364A36487
:10144000A3500432A3500432A35004480432A350E2
:101450009433E064E550A84770BDC046DC3100001D
:101460008C23C1507047C0469423F0B52A4F050025
:10147000C3588BB03800984784232E00EC58343B77
:10148000E95C00220023503600291BD19C4235DC48
:10149000002A06D010008C23EB58002B01D069469F
:1014A00098479423E86CEB58984700248423EC5029
:1014B0000433EC5033220021300001F0B9F9AC6460
:1014C0000BB0F0BD9C42E3DD0AA98C46501C920093
:1014D0006244283AF1181160092814DC1A005132CC
:1014E000AA1802E001329C42D5D0117801330029BC
:1014F000F8D19C42CFDD02009C42C9DD0133E918DE
:1015000050310978C0E7942404482B5998472B5947
:1015100038009847C5E7C046302D0000E031000094
:1015200070B582B0040001917F2903D84A4A8B002C
:10153000D3589F46202900D185E01F2924DD84232C
:10154000E258312A20DC8825200063595030C11828
:10155000D21A0133C01801F01FF901AB61591A7892
:1015600063185033202A00D173E01A708420882336
:101570004A1CE2502358013323500020E318503313
:1015800018702000FFF74CFE02B070BD8823C258CF
:101590008825002A05DD2000FFF720FF6259002A78
:1015A000F9DC00212000FFF73BFEEDE79430FFF768
:1015B000EDFD00228823E250E6E788254359002B01
:1015C000E2D0012194304942FFF7FAFD6359013B13
:1015D0006351D9E784268825835942599430991A52
:1015E000FFF7EEFDA3596351CEE7882584234259C6
:1015F000C3589A42C8DA94300121FFF7E1FD6359DC
:1016000001336351C0E788254159002902DDFFF706
:10161000E5FE61590A002000FFF702FEB4E7FFF77C
:1016200023FFB1E79423C3580C4898478823E25816
:10163000043BE250A8E70121FFF732FEA4E70021B6
:10164000FFF72EFEA0E78423E258002A00D078E7B7
:101650009AE7002289E7C046C82F0000D031000079
:1016600003680C490C2219600B49DA625960FA21AF
:10167000DA61583299601A62F439084AD96001393E
:1016800019615A620139064A5961033999619A62AE
:101690007047C046C40900009A10000060EA0000CC
:1016A000CC10000010B5FFF7DBFF10BDF8B55F46AA
:1016B00056464D464446F0B4A025ED05280000F0FE
:1016C0005FFA802304210120814C1B02E25810267E
:1016D0000A43E2507F4A7C315050E15801300143C7
:1016E000E15001217C48D167C15820273143C150C6
:1016F00000211164C6583E43C6505164C658203775
:101700003E43C6501160C658BA46C0373E43C65025
:101710005162C6580137FF37BC463E438027C6504A
:101720005165C658FF00B9463E438027C6509165B3
:10173000C6583F01B8463E430427C6501167EE58CD
:101740003E43EE50D161EE58370008263743EF5044
:10175000D162EF5808363743EF501163EE58370027
:1017600020263743EF5057465163EE583743EF502A
:10177000D164EE58370080263743EF501165EE589C
:101780003700802676003743EF501166EE58370059
:1017900066463743EF505166EE5837004E463743A2
:1017A0000126EF509666EE58370046463743EF5015
:1017B000012501265567E55801273543E5500925E0
:1017C000AA4695676160E55807363543E5505646A9
:1017D000902556512162E55807363543E55094254A
:1017E000083E56512164E55818363543E550A0258A
:1017F000183E5651203D6151E558F8363543E550C5
:10180000082555614D4666466151E5583543E5501A
:101810000825956345464E466151E5583543E550E8
:101820000825D566802546466D016151E55835434A
:10183000E5500826982556518025AD0161510125B6
:10184000C4582C43C450082494604160C4580135E6
:101850002C43C450082494628160C45802352C4340
:10186000C4500824D4650161C45804352C43C450C5
:101870008C2415510162C45878352C43C450082477
:101880001462644601511548783DC45827438424A6
:10189000C75015514160C458063D2C43C45008241C
:1018A00094678160C45802352C43C450082494675F
:1018B0000161C45804352C43C450AC230824D450CF
:1018C00001623CBC90469946A246AB46F8BDC04674
:1018D000000001500040044000000250000003508E
:1018E000024B1869431E9841C0B270470000015076
:1018F000014B40009860704700000150024B186C8B
:10190000431E9841C0B27047000002508023034A32
:10191000D058431E9841C0B27047C04600000250E4
:101920008023034A5B00D058431E9841C0B27047E1
:1019300000000250002210B508000A714A71190017
:10194000FEF7C6FD10BDC0464B7930B5052B0AD851
:101950001E4C9B00E3589F460023137201224A71DC
:101960001B4A8A60437630BD437E002B25D1194C3B
:101970002568194CA542F6D9EFE701230B71002326
:101980004B71164B8B60EEE70023137203224A71F2
:10199000124A8A604376E6E70023137204224A71F2
:1019A0000E4A8A604376DEE70123137201334B71DE
:1019B000074B8B6000234376D5E700231372052283
:1019C0004A71064A8A604376CDE7C046FC31000082
:1019D00020A10700240700108813000090D0030006
:1019E000012810D0022808D0032813D1012913D0D0
:1019F000023948424841C0B204E0814301394842BB
:101A00004841C0B2704700230239C9B288425B41E5
:101A1000D8B2F7E70020F5E70120F3E7F0B5474635
:101A200080B40C79077906000D002000390090463B
:101A3000FFF7D6FF002805D0012C1AD0002C1BD0B0
:101A4000032C13D9022C09D0032C07D0002C0AD167
:101A5000424629003000FFF777FF04E042462900A4
:101A60003000FEF75FFD04BC9046F0BDAB79002B63
:101A7000E8D12F713C00E5E76B79052BE8D1F8E759
:101A8000184A194B01201A60184A194B19491A6053
:101A9000002201230A644B644A644B644A6C154B70
:101AA0001042FBD023228E2180209A6089005A5850
:101AB00082435A501A007F38D1680E4B0842FBD03F
:101AC00003221A67002201205A6701325A675A6FAF
:101AD00008491042FBD00123074A8B677F33CA5065
:101AE0007047C046006CDC022807001080BB000075
:101AF0002C070010008004405F000100032100B5A6
:101B00001B4A83B0136F0B40022B1CD0032B0CD04D
:101B1000012B02D0174803B000BD136C1940F9D057
:101B2000012923D1144B1868F5E79168126C134012
:101B300016D0012B1AD11F200F4B08401B68013013
:101B400001935843E7E71F21536ADA051940120F42
:101B50000A4B920001314900D05800F053FDDAE7FA
:101B60001F20044B084001305843D4E70020D2E73F
:101B700000800440001BB700402A0000143200001F
:101B8000802240230249885803438B507047C04647
:101B90000080044043600023016082600361C360F1
:101BA00001207047F8B5C26803690D004168040060
:101BB000D31A00208B420ED2100000F0A9FDA668B7
:101BC0002768714332007818290000F0A7FD012032
:101BD000E3680133E360F8BDF0B54746036980B4BC
:101BE0000E0017004168C2680500D31A884600201D
:101BF0008B4230D21000CC1A00F08AFD0B19002263
:101C0000434503D343465B1AE21A1C002868BC42D2
:101C100026DC3F1B974221DCAA68514362434018EF
:101C2000310000F07BFDEB686968E018AB68E860A4
:101C3000984600F06DFD4046484341462B684246B9
:101C40009C46614360447A43711800F067FDEB687D
:101C5000E019DB19EB6004BC9046F0BD1700DBE730
:101C60003C003F1B9742D7DDF8E7C046F8B50400BB
:101C70000369E2680E0000209A420FD018006168E4
:101C800000F046FDA568276869432A0079183000EE
:101C900000F044FD0120236901332361F8BDC046F3
:101CA000F8B54F464646C468C0B407000069884688
:101CB000150084423DD07E68241A310000F028FDD2
:101CC0000B1900229E4202D8761AA21B34003868F3
:101CD000AC4229DC2D1B954224DC2200BB685A4310
:101CE0004B43C118404600F019FD3B69BE68E0183F
:101CF0003300634398442B007343796838619946F5
:101D000000F006FD3B6871439C464A4661444046EC
:101D100000F004FD3B6960195B193B610CBC904607
:101D20009946F8BD1500D8E72C002D1B9542D4DD4F
:101D3000F8E70020F2E7C046802110B58024074B69
:101D400064015A5822435A5098227F3999500723E8
:101D50008360043BC3600D33836210BD0080044088
:101D600070B500262025002A0DDD00234469254298
:101D700004D0CC5C013304609A42F7DCD21AF61826
:101D8000C918002AF1DC300070BDC046F0B583B040
:101D90006A46436904000E00D51D20279B0605D422
:101DA0000AE02B78236063691F4205D029003000C8
:101DB000FFF75CFF0028F4D103B0F0BDF8B54F4643
:101DC00046460225C0B4894616001F004368040039
:101DD000AB433A00436031004846FFF7FDFE8046C2
:101DE00049462000FFF7D2FF43463100FA1A41442A
:101DF0004846FFF7F1FE636840441D4365600CBC34
:101E000090469946F8BDC04610B5080011001A006A
:101E1000FFF746FF10BDC046F0B50225436883B00A
:101E200004000F0016001D4210D16A466369D51DDB
:101E30000126DB0708D52368290038002B70FFF73F
:101E4000B1FE63691E42F6D103B0F0BD1100FFF789
:101E50009DFFF26833699A42E7D16368AB436360E0
:101E6000E3E7C046F8B54F464646C0B40D0104004E
:101E7000FFF744FE2900070000F04AFC002936D095
:101E8000280000F0BFFB0C22030000209A424041D2
:101E90000F2602001E4033011A4381463100684379
:101EA000904600F0AFFB4119380000F0ABFB4B4609
:101EB000050018016843310000F0A4FB8022FF21D7
:101EC000E3681343E3600B002B4023602B0A0B40B5
:101ED0006360E36829019343E36043460918A36202
:101EE000380000F08FFB0CBC90469946F8BD2900E5
:101EF000380000F087FB0023050098460020DDE74E
:101F00000122024B1860024B1A7070470C07001038
:101F10001307001010B50B4C0B4B60741B682000AE
:101F20009B68DB68984721000848FFF73BFE0028C4
:101F300006D10122064B1A708022064B12011A604C
:101F400010BDC046600A0010F81FFF1FF806001001
:101F5000130700100C07001070B50400022807D901
:101F600001220D4B1A7080220C4BD2001A6070BDFA
:101F700000230B4E0B4D335429000B48FFF776FE20
:101F80000028F4D0094B6C741B6828009B681B69FF
:101F9000984701233355EAE7130700100C07001098
:101FA00010070010480A0010E4060010F81FFF1F79
:101FB0008022F0B50500802047460C0020498002B1
:101FC0008B5880B403438B50FFF798FD290000F035
:101FD00019FB002303279846012343449C463E00F7
:101FE000190001253200032390420ED0013352180C
:101FF000122BF9D101356144F619212DF2D1634636
:102000000337102B17D0E046E6E74246033B58085B
:1020100022600200032811D8F02196010901020272
:102020000A403243013D1543E0221B1A1B03D20133
:1020300013401D43656004BC9046F0BD0322EBE7EE
:1020400000800440074B00205B681B0608D508226F
:10205000054B013059689143596059680A435A60E9
:102060007047C04600000540008004400200002088
:10207000002A0FD006230F4913409B00CB589F46E0
:1020800080230C20DB009A4204D080231B019A425B
:102090000DD0013070470520FCE70620FAE7072045
:1020A000F8E70820F6E70920F4E70A20F2E70F2016
:1020B000F0E7C04654320000034B10B51B689B6824
:1020C0005B68984710BDC046F81FFF1F1B2370B503
:1020D0000C4C0D4D63742B6821609B6860609B689D
:1020E000200098471C2363742B6820009B689B6822
:1020F00098471D2363742B6820009B689B68984752
:1021000070BDC046600A0010F81FFF1F1E2370B587
:10211000084C094D63742B6821609B6860609B6864
:10212000200098471F2363742B6820009B689B68DE
:10213000984770BD600A0010F81FFF1FF0B500241B
:10214000204D8BB00600102318221F492800FFF7EE
:1021500021FD2C61EC601D4D1D4910231822280023
:10216000FFF718FD2C61EC6002AD2A00194B83CB00
:1021700083C283CB83C203CB03C23000164E6946B1
:10218000FFF716FF336801219B6868461B68984774
:10219000336828009B68DB69984780220F4B9201C7
:1021A0001A6000210020FFF791FF00210020FFF7B7
:1021B000ADFF0B4B1C700B4B1C600B4B1C800BB012
:1021C000F0BDC046F8060010C8080010E406001074
:1021D0004807001070320000F81FFF1F00E100E008
:1021E000130700100C07001010070010094B10B562
:1021F0001A78002A06D000221A70074B1868FFF7D9
:1022000035FF10BD01000548FFF730FD434258413E
:10221000C0B2F6E7130700100C070010F806001014
:10222000164B70B51A78002A11D1154C6378002B23
:1022300014D0A378002B1DD001001248FFF7B2FC88
:1022400003005A4253410E205B42184070BD0022E9
:102250001A700D4B1868FFF709FFF7E701250123F6
:1022600043740A4B1B689B681B6998470123002035
:102270006355EBE702250233F2E7C046130700106F
:1022800010070010E40600100C070010F81FFF1FD5
:102290000300084870B5036002740023002A06D0CA
:1022A000CD5CC41801332572DCB2A242F8D8FFF726
:1022B000B7FF70BD3007001010B586B00400684647
:1022C000FFF794FF002811D1009B23606B46197C17
:1022D000217100290AD00139C9B20131621D591892
:1022E0001C7A0133147001328B42F9D106B010BD53
:1022F00030B50B4D0400287800280FD1094A136827
:102300002360137905322371631D0D341178013276
:1023100019700133A342F9D101232B7030BDC0469F
:1023200000010010140700100122024B18781A70E7
:102330007047C0460001001010B5064CFFF7FEFEC6
:1023400020000021FFF7C2FE00212000FFF7DEFE83
:1023500010BDC04600F8FF1F10B5314C2000FFF73C
:10236000ABFF304A03001070012825D00220002B5B
:1023700000D010BD2368F22B50D010D92A4A9342C6
:1023800044D025D8F42B32D044D3284A0420934299
:10239000EFD0274A01309342EBD00120E9E7D32B5D
:1023A0003AD00BD8D02B26D02CD90920D12BE0D075
:1023B0000330D22BDDD0F0E70020DAE7D52B18D0A0
:1023C00026D30A20F02BD4D00430F12BD1D0E4E76F
:1023D000184A934209D010D9174A11209342C8D005
:1023E000164A0B389342C4D0D7E70820C1E714201F
:1023F000BFE71220BDE70D20BBE7013A032093425F
:10240000B7D0CAE70930C02BB3D0C6E70720B0E782
:102410001320AEE71020ACE71520AAE70F20A8E7AD
:10242000140700100001001026050000210500001F
:102430002205000001060000F4E50618E550FF182B
:102440000022002330B583B0009201936A46431DF9
:1024500007320D301C7801331470013A8342F9D1F0
:10246000019A009B10011C0F0443012004409500B9
:102470000C709C0F2C430440D5004C705C0F2C4317
:10248000044055018C70DC0E2C430440CC70CA8093
:10249000140CDB0F5200134303408C800B7203B00B
:1024A00030BDC0460022002310B582B000920193D7
:1024B0006A46431D07320D301C7801331470013A0F
:1024C0008342F9D17F200400009B019A1C400C70CC
:1024D000D40D4C805C0C20400871D803800DC8805E
:1024E0005002401508811B0E100203439B05120584
:1024F0009B0DD20F4B810A7302B010BD00B585B0A1
:1025000000226946037868460A73CA728A720021FB
:10251000DB0703721B0E4172C271694682714371FF
:102520000123C0200B71C000012205310090FFF78C
:10253000AFFE05B000BDC04670B5064D2C78002C2E
:1025400005D101000448FFF77BFF01232B70200019
:1025500070BDC046000100101407001000B585B022
:1025600000226946037868460A73CA728A7200219B
:10257000DB0703721B0E4172437169460123C2716E
:10258000827104480B71012205310090FFF780FE33
:1025900005B000BD0106000070B5064D2C78002C7A
:1025A00005D101000448FFF77DFF01232B702000B7
:1025B00070BDC046000100101407001000B58388EC
:1025C000028885B01B041343827868460021D20735
:1025D0000273120E42721A0A0372C2711A0C1B0E97
:1025E000C1728172437169460523827104480B717F
:1025F000052205310090FFF74BFE05B000BDC04637
:10260000F4E50618002243088B4274D303098B4279
:102610005FD3030A8B4244D3030B8B4228D3030CB2
:102620008B420DD3FF22090212BA030C8B4202D354
:102630001212090265D0030B8B4219D300E0090A7C
:10264000C30B8B4201D3CB03C01A5241830B8B4285
:1026500001D38B03C01A5241430B8B4201D34B036E
:10266000C01A5241030B8B4201D30B03C01A5241D3
:10267000C30A8B4201D3CB02C01A5241830A8B4258
:1026800001D38B02C01A5241430A8B4201D34B0241
:10269000C01A5241030A8B4201D30B02C01A5241A5
:1026A000CDD2C3098B4201D3CB01C01A5241830959
:1026B0008B4201D38B01C01A524143098B4201D393
:1026C0004B01C01A524103098B4201D30B01C01ABE
:1026D0005241C3088B4201D3CB00C01A5241830838
:1026E0008B4201D38B00C01A524143088B4201D365
:1026F0004B00C01A5241411A00D2014652411046C5
:102700007047FFE701B5002000F006F802BDC046A3
:102710000029F7D076E770477047C04670B50F2A9A
:1027200032D90C0004430B00A40731D1150004007A
:10273000103D2D0901352D0149191E6826605E687E
:1027400066609E68A660DE681033E66010349942C9
:10275000F3D10F2345191340032B1BD91C1F002352
:10276000A4080134A400CE58EE5004339C42FAD1A0
:1027700003232D1909191A4005D00023CC5CEC5411
:1027800001339A42FAD170BD0500002AF5D1FAE76B
:102790000500F2E71A00F8E770B588420BD98B18EC
:1027A000984208D2991A531E002A03D0CA5CC25418
:1027B000013BFBD270BD0F2A09D80500002AF9D0D1
:1027C0000023CC5CEC5401339A42FAD1F2E70C00BE
:1027D00004430B00A40726D115000400103D2D0969
:1027E00001352D0149191E6826605E6866609E6885
:1027F000A660DE681033E66010349942F3D10F24EE
:1028000045191440032C10D90023043CA4080134BA
:10281000A400CE58EE5004339C42FAD103232D1964
:1028200009191A40CAE70500CAE72200C6E7C046F0
:1028300070B583073FD0541E002A3BD0CEB20300B0
:10284000032503E0621E002C34D0140001335A1E0D
:1028500016702B42F6D1032C24D9FF250D402A02F5
:1028600015432A0415430F2C11D92600103E3609B2
:10287000013636011A009B19156055609560D560C8
:1028800010329342F8D10F221440032C0AD9261F8C
:10289000B6080136B6001A009B1920C29342FCD13B
:1028A00003221440002C05D0C9B21C191970013341
:1028B0009C42FBD170BD14000300CCE7024670B50A
:1028C0000A4392072AD11E4DEE0104C808C9541BC1
:1028D0009443344017D0D0B2D9B2401A21060143F4
:1028E00010D190B299B2401A210401430AD11002CA
:1028F0001902000A090A401A2102014302D1100EEE
:10290000190E401A70BD9A42DFD010BA19BA884227
:1029100001D9012070BD0020C04370BD02780B7842
:1029200001300131002A09D09A4207D102780B7890
:1029300001300131002A01D09A42EFD0D01A70BD87
:102940000101010110B5830727D00378002B26D0A1
:102950000300032102E01A78002A1CD001330B4245
:10296000F9D119680F4A104C8A188A4322420FD1B4
:10297000043319680B4A8A188A43224208D1043367
:102980001968084A8A188A432242F1D000E00133CC
:102990001A78002AFBD1181A10BD0300E1E70020C5
:1029A000FAE7C046FFFEFEFE80808080F0B5574605
:1029B00045464E46E0B48AB090466A461D4B0D002F
:1029C000060013CB13C213CB13C213CB13C21B7855
:1029D000EA4613704346023B2F000024222B01D904
:1029E00024E04C46631C300041469946FFF790FEB8
:1029F00053465B5C30003B704146FFF703FE0137F6
:102A0000061EEED14B46E8540023002C07D0EA5CAA
:102A1000295DE9542A550133013CA342F7DB280024
:102A20000AB01CBC90469946A246F0BD2C7000200E
:102A3000F6E7C0469032000010B5FFF7B7FF10BDB3
:102A4000000000000D0A00009A0500006805000063
:102A500016060000CA05000030060000020600004D
:102A6000AA0500007C080000AC080000DC0800009B
:102A70000C0900009C090000CA0900003C09000084
:102A80006C090000F8090000260A00004C0800004C
:102A9000540A0000A20B0000AC0B0000B60B0000B3
:102AA000C00B0000CA0B0000D40B0000DE0B0000BE
:102AB000E80B0000F20B0000FC0B0000060C00000D
:102AC000100C0000B42B00003C2D0000482D00002D
:102AD0005C2D0000682D00007C2D0000942D00006E
:102AE000A82D0000BC2D0000CC2D0000E02D000022
:102AF000F42D0000C02B0000A82C0000BC2C00000E
:102B0000CC2C0000DC2C0000182F00002C2F000023
:102B1000442F0000582F0000D90A0000D107000000
:102B2000ED0C0000950C0000A10D0000450C00000C
:102B3000ED0600004D656173757265204F6E2100D2
:102B40004D656173757265204F6666210000000057
:102B50007072696E745F666C616773005061636B5D
:102B60002043757272656E743A204F6E000000004B
:102B70005061636B2043757272656E743A204F66C4
:102B8000660000007061636B63757272656E74003D
:102B90007061636B766F6C7461676500556E72650A
:102BA000636F676E697A656420636F6D6D616E64D3
:102BB0002100000063656C6C5F6D696E5F6D56008F
:102BC0007374617465000000536574206661696CFC
:102BD000656420286E6F7420696E207374616E6462
:102BE0006279206D6F64652921000000446F6E6575
:102BF0002100000074686973206C6F636174696FF1
:102C00006E2069732072656164206F6E6C790000BC
:102C1000696E76616C6964206C6F636174696F6E54
:102C200000000000696E76616C696420676574203D
:102C30006C6F636174696F6E000000006368726797
:102C4000206F66660000000063687267206F6E0088
:102C50004D75737420626520696E207374616E64B3
:102C6000627900004D593138000000004D5931366D
:102C700000000000676574002D2D2D2D2D2D722F65
:102C80007720656E74726965732D2D2D2D2D2D00A5
:102C90002D2D2D2D2D2D722F6F20656E747269656F
:102CA000732D2D2D2D2D2D007061636B5F63656C71
:102CB0006C5F6D61785F6D56000000007061636B42
:102CC0005F63757272656E745F6D41007061636BF6
:102CD0005F766F6C746167655F6D56006661756CD9
:102CE0007400000062616C206F66660062616C2097
:102CF0006F6E0000696E636F7272656374206E752B
:102D00006D626572206F662061726773000000005B
:102D1000556E7265636F676E697A656420636F6D67
:102D20006D616E64000000002C70637572722C007F
:102D30000A0000002C70766F6C742C0063656C6C5C
:102D40005F6D61785F6D560063656C6C5F63617089
:102D500061636974795F6341680000006E756D5F3F
:102D60006D6F64756C6573006D6F64756C655F6322
:102D7000656C6C5F636F756E7400000063656C6CEE
:102D80005F6368617267655F635F726174696E67D4
:102D90005F63430062616C5F6F6E5F74687265733E
:102DA000685F6D560000000062616C5F6F66665F71
:102DB0007468726573685F6D560000007061636BC4
:102DC0005F63656C6C735F700000000063765F6D1D
:102DD000696E5F63757272656E745F6D41000000AD
:102DE00063765F6D696E5F63757272656E745F6D39
:102DF0007300000063635F63656C6C5F766F6C7477
:102E00006167655F6D5600007365740068656C707E
:102E100000000000636F6E6669675F6465660000AE
:102E200062616C0063687267000000006D65617329
:102E3000757265004353425F494E49545F4F4646A1
:102E4000000000004353425F494E49545F535749C5
:102E50005443485F353030004353425F494E495434
:102E60005F53454E445F3530300000004353425FAE
:102E7000494E49545F5357495443485F32353000F7
:102E80004353425F494E49545F574149545F32357D
:102E9000300000004353425F494E49545F444F4E57
:102EA000450000004353425F4348415247455F4F4E
:102EB000464600004353425F4348415247455F49FD
:102EC0004E4954004353425F4348415247455F4394
:102ED000430000004353425F4348415247455F432C
:102EE000560000004353425F4348415247455F420A
:102EF000414C00004353425F4348415247455F46BF
:102F000041554C54000000004353425F4348415236
:102F100047455F444F4E45004353425F53534D5F17
:102F20004D4F44455F494E49540000004353425FB2
:102F300053534D5F4D4F44455F5354414E444259A6
:102F4000000000004353425F53534D5F4D4F4445D3
:102F50005F434841524745004353425F53534D5FDF
:102F60004D4F44455F42414C414E434500000000F7
:102F7000742C0000082E00000C2E0000142E0000FF
:102F8000202E0000242E00002C2E00000102010142
:102F900001000100342E0000442E0000582E0000D5
:102FA0006C2E0000802E0000942E0000A42E000045
:102FB000B42E0000C42E0000D42E0000E42E000029
:102FC000F42E0000082F000034150000AC1500009E
:102FD000BA1500003415000034150000D4150000A7
:102FE000EA15000034150000061600003415000034
:102FF0001E1600002416000034150000881500007D
:1030000036160000341500003E160000341500008E
:103010003415000034150000341500008C15000034
:10302000341500003415000034150000341500007C
:103030003415000088150000341500003415000018
:10304000341500003415000034150000341500005C
:10305000341500003415000034150000341500004C
:10306000341500003415000034150000341500003C
:10307000341500003415000034150000341500002C
:10308000341500003415000034150000341500001C
:10309000341500003415000034150000341500000C
:1030A00034150000341500003415000034150000FC
:1030B00034150000341500003415000034150000EC
:1030C00034150000341500003415000034150000DC
:1030D00034150000341500003415000034150000CC
:1030E00034150000341500003415000034150000BC
:1030F00034150000341500003415000034150000AC
:10310000341500003415000034150000341500009B
:10311000341500003415000034150000341500008B
:10312000341500003415000034150000341500007B
:10313000341500003415000034150000341500006B
:10314000341500003415000034150000341500005B
:10315000341500003415000034150000341500004B
:10316000341500003415000034150000341500003B
:10317000341500003415000034150000341500002B
:10318000341500003415000034150000341500001B
:10319000341500003415000034150000341500000B
:1031A00034150000341500003415000034150000FB
:1031B00034150000341500003415000034150000EB
:1031C00034150000061600001B5B000044000000E0
:1031D0001B5B4B001B5B44201B5B4400203E20001C
:1031E0004552524F523A746F6F206D616E79207460
:1031F0006F6B656E730000003E20000058190000E0
:10320000A81900008819000098190000681900002A
:103210007A19000000000000C02709009005100086
:10322000C05C1500F0B31A00200B2000009F2400A2
:10323000E0322900C0C62D0050973100E06735000C
:103240007038390000093D004016400080234300DB
:10325000C030460080200000962000009A20000028
:103260009E200000A2200000A6200000AA2000004E
:10327000151F0000591F0000011F00000000000082
:10328000000000000000000000000000000000003E
:1032900030313233343536373839616263646566CC
:1032A0006768696A6B6C6D6E6F7071727374757636
:0832B0007778797A0000000034
:0832B80008CEFF7F01000000B9
:0432C0000100000009
:04000003000000C138
:00000001FF
